S01E00007468726F7567687075745F64656D6F5F6B32326673682E7372656339
S1130000F0FE002051040000018A0300018A03006D
S1130010018A0300018A0300018A03000000000032
S1130020000000000000000000000000CF88030072
S1130030018A03000000000045890300018A0300CF
S1130040018A0300018A0300018A0300018A030074
S1130050018A0300018A0300018A0300018A030064
S1130060018A0300018A0300018A0300018A030054
S1130070018A0300018A0300018A0300018A030044
S1130400FFFFFFFFFFFFFFFFFFFFFFFFFEFFFFFFF9
S107041000000000E4
S11304204DF8881CF1EE101A02B42DED200A5DF887
S1130430041C70474DF8041CBDEC200A02BCE1EE1C
S1130440101A5DF8881C70470000000000000000CE
S113045013481449144A4FF0080333B140F8042BED
S113046041F8042BA3F10103F7E7EFF3088080F3CD
S11304700988EFF3148040F0020080F31488BFF37E
S11304806F8FDFF82800016841F4700101600848AB
S11304904FF00001016000F012B8000000000000FD
S11304A080E100E080E200E0FFFFFFFF88ED00E074
S11304B034EF00E080B500F078F8012002BD80B58B
S11304C000F08CF801BD00003D4810F58251096828
S11304D051F0010110F58252116041F204010958F2
S11304E051F4407141F20402115036484FF4A061B6
S11304F081624FF4A061C1624FF4A06101644FF4C2
S1130500A06141644FF4A06101654FF4A0614165AD
S11305104FF4A06181654FF4A061C1652A484FF48E
S1130520A06101604FF4A06181604FF4A061C160DB
S11305304FF4A06101614FF4A06181614FF4A061A7
S1130540C1614FF4A06141624FF4A06181624FF434
S1130550A061C1624FF4A06101634FF4A0614163E3
S11305604FF4A06181634FF4A061C16317484FF455
S1130570A06101604FF4A06141604FF4A06181600B
S11305804FF4A061C1604FF4A06101614FF4A06118
S113059041614FF4A061816170470D4908604FF4D7
S11305A0166088600B484860704780B500F0D4FC42
S11305B000F028FEFFF788FF0748FFF7EEFF01BDB4
S11305C00070044000A0044000B0044000C0044097
S11305D000C000400100070000000060C046C046A3
S11305E000F082FE00F092FE7047C0B2002824D1D1
S11305F0A020DFF8EC180870DFF8E808007810F0A5
S1130600FC00DFF8E01808701820DFF8DC18087028
S11306102420DFF8D81808700B20DFF8D4180870ED
S11306205020DFF8D0180870DFF8CC080078C0B28A
S113063010F00C000C28F7D1FFE77047C0B2002877
S113064002D001282AD053E0A020DFF894180870C3
S1130650DFF89008007810F0FC00DFF888180870C4
S11306609820DFF8841808702420DFF880180870B8
S11306700B20DFF87C1808705020DFF87818087019
S1130680DFF874080078C0B210F00C000828F7D125
S1130690DFF8640800784006FAD529E08020DFF806
S11306A040180870DFF83C08007810F0FC00DFF810
S11306B0341808709A20DFF8301808702520DFF805
S11306C02C1808700B20DFF8281808705020DFF869
S11306D024180870DFF820080078C0B210F00C006D
S11306E00828F7D1DFF8100800784006FAD5FFE7AC
S11306F07047C0B2002802D0012837D06DE0242012
S1130700DFF8E8170870A020DFF8D4170870DFF8C6
S1130710D407007810F0FC00DFF8C81708709820A0
S1130720DFF8C4170870DFF8D407007810F01F0052
S1130730DFF8C81708700B20DFF8B4170870102012
S1130740DFF8B0170870DFF8B00700788007FAD533
S1130750DFF8A4070078C006FAD4DFF89C07007815
S1130760C0B210F00C000828F7D136E02520DFF8DD
S11307707C1708708020DFF868170870DFF86407BA
S1130780007810F0FC00DFF85C1708709A20DFF89E
S113079058170870DFF86407007810F01F00DFF8BE
S11307A05C1708700B20DFF8481708701020DFF87A
S11307B044170870DFF8400700788007FAD5DFF89F
S11307C038070078C006FAD4DFF82C070078C0B2E6
S11307D010F00C000828F7D1FFE77047C0B20128D9
S11307E016D14620DFF8001708702720DFF8FC1622
S11307F008708020DFF8E8160870DFF8FC0600783F
S1130800C006FAD5DFF8F0060078C007FAD5FFE78E
S11308107047C0B2002802D0012832D063E04420DF
S1130820DFF8C41608702420DFF8C0160870DFF85B
S1130830CC06007810F01F00DFF8C0160870A02066
S1130840DFF89C160870DFF89C06007810F0FC00B6
S1130850DFF8901608700B20DFF89416087010204B
S1130860DFF890160870DFF890060078C006FAD515
S1130870DFF884060078C0B210F00C000428F7D129
S113088031E04620DFF8601608702520DFF85C169A
S11308900870DFF86806007810F01F00DFF85C16B7
S11308A008708020DFF838160870DFF83806007802
S11308B010F0FC00DFF82C1608700B20DFF830165F
S11308C008701020DFF82C160870DFF82C0600786A
S11308D0C006FAD5DFF820060078C0B210F00C008C
S11308E00428F7D1FFE7704770B504000025E4B28F
S11308F0002C02D0012C02D003E0042501E00125E4
S1130900FFE700F031F80600DFF8F405F6B2052140
S113091001FB0600EDB22E5CF6B2002E06D0022ECC
S11309200ED008D3042E15D00FD318E02000C0B287
S1130930FFF76FFF13E02000C0B2FFF74FFF0EE098
S11309402000C0B2FFF7D5FE09E02000C0B2FFF7D7
S113095075FE04E02000C0B2FFF747FEFFE7EDB2EA
S1130960F6B2B542D0D170BDDFF87C050078C0B2D4
S113097010F0C000002804D0402804D080280BD0F8
S113098013E0042012E0DFF864050078800701D446
S113099000200BE0012009E0DFF85805007840064C
S11309A001D4022002E0032000E000207047C0B21E
S11309B0042801D302204FE0C0B2002826D0032827
S11309C049D18020DFF818150870DFF83805006871
S11309D050F48030DFF82C1508601A20DFF8081571
S11309E008702420DFF8041508700520DFF80015CE
S11309F008704620DFF8FC140870DFF8FC04007867
S1130A00C0B210F00C000C28F7D124E08020DFF8ED
S1130A10D0140870DFF8EC04006850F48030DFF87C
S1130A20E41408601A20DFF8C01408702420DFF8EA
S1130A30BC1408700B20DFF8B81408705020DFF8DD
S1130A40B4140870DFF8B0040078C0B210F00C00E1
S1130A500C28F7D1FFE70020704710B50400E4B27A
S1130A60042C01D30220EDE0DFF89C040078032875
S1130A700BD1E4B2012C02D0E4B2022C01D11B2030
S1130A80E0E02000C0B2FFF792FFE4B2032C0FD1E4
S1130A90DFF874040078012804D0DFF86C040078CF
S1130AA0022801D11B20CDE02000C0B2FFF77FFF58
S1130AB0E4B2002C06D0022C52D02AD3032C00F02E
S1130AC0A580B8E0DFF840040078022807D15FF081
S1130AD0A270DFF8381408600020FFF705FF5FF00C
S1130AE09970DFF8281408600920DFF824140860DE
S1130AF0DFF81004006850F48030DFF80814086050
S1130B00DFF81004006830F44020DFF808140860AF
S1130B1091E0DFF8F4030078022807D15FF0A270B7
S1130B20DFF8E81308600020FFF7DEFEDFF8E803D3
S1130B30DFF8D81308600920DFF8D4130860DFF861
S1130B40C403006850F48030DFF8B8130860DFF89D
S1130B50C403006830F44020DFF8B81308606AE08A
S1130B605FF0A270DFF8A4130860DFF88003007858
S1130B70C0070AD4DFF8A403007810F0F30050F0A3
S1130B800200DFF89813087023E0DFF860030078B0
S1130B9010F0FE00DFF854130870DFF85C030078EF
S1130BA0C007FAD4DFF87403007810F0F30050F0B3
S1130BB00200DFF868130870DFF83003007850F0A3
S1130BC00100DFF828130870DFF82C030078C00751
S1130BD0FAD50120FFF788FE5FF44030DFF82C13CC
S1130BE008600920DFF828130860DFF8180300689C
S1130BF050F48030DFF80C130860DFF81803006845
S1130C0030F44020DFF80C13086014E05FF0A270A9
S1130C10DFF8F81208600920BD490860B948006887
S1130C2050F48030B7490860BA48006830F4402076
S1130C30B8490860FFE72000C0B2FFF7D5FCB2480E
S1130C400470002010BDB04800787047C0B201287D
S1130C5033D0C0F08580032864D055D3052801D053
S1130C607DD37DE08020AE490870AE48007850F016
S1130C706000AC490870AC480078C0B28028FAD152
S1130C80AA48006830F00600A84908609E48007829
S1130C90022810D098480078C0B210F00C000C283C
S1130CA009D09148007810F03B008F4908709248B1
S1130CB000784006FBD5002070479A48007810F071
S1130CC09F009849087098480078C0B20128FAD16A
S1130CD09648006830F00600944908608A48007815
S1130CE0022810D084480078C0B210F00C000C2800
S1130CF009D07D48007810F03B007B4908707E489D
S1130D0000784006FBD5D6E78848006830F0040038
S1130D10864908608548006830F00200834908600D
S1130D2030BFC8E78148006850F004007F4908607C
S1130D307C48007810F0F8007A4908707948007807
S1130D40C0B2002801D1012000E00020C0B27748E1
S1130D50006850F002007549086030BFABE7AAE7AD
S1130D608120A9E74CF22050714908804DF62810E3
S1130D706F4908804FF4E9706E4908806E486349F2
S1130D8008606E48006850F4D0506C4908606C48A4
S1130D900078000705D56A48007850F008006849D3
S1130DA008705FF09270594908600920584908603A
S1130DB05448006850F4803052490860554800682F
S1130DC030F44020534908605E4800685E4908409A
S1130DD05C4908605D4800685B4908405B490860FD
S1130DE0242042490870A0203D4908703D480078FD
S1130DF010F0FC003B49087098203B4908703F48BC
S1130E00007810F01F003D4908700B203849087025
S1130E10102038490870384800788007FBD53648D8
S1130E200078C006FBD434480078C0B210F00C003F
S1130E300828F8D150202F4908702F480078C0B2F4
S1130E4010F00C000828F8D12B4800784006FBD598
S1130E5018202549087003202B490870264800787B
S1130E60C0B210F00C000C28F8D1704780B50022F5
S1130E700021C0B2FFF7EAFE02BD80B501000020E8
S1130E800800C0B2FFF7E9FD80B2002801D080B2AB
S1130E9009E0C82200212E4800F09DFA002801D064
S1130EA01B2000E0002002BD80B5FFF7CCFE02BD90
S1130EB00022C0B2042810DAC9B20A2908D2254A8D
S1130EC0C0B2282303FB0020C9B250F8212004E05B
S1130ED0C9B20A2901D14FF47A7210007047000098
S1130EE0005006400C4006400040064001400640C9
S1130EF004400640054006400640064003400640C4
S1130F004030040004800440F400FF1F4480044087
S1130F10488004400070044000009999084006404D
S1130F2000E0074001E0074003E0074010ED00E067
S1130F300E200540002005400000330138800440A5
S1130F4002D0074048900440FFF8FFFE4C90044054
S1130F503002FF1F5C30040080B5FFF703FF01BDC2
S1130F60DFF83423C0B2002802D0012826D04AE09A
S1130F70DFF82803CB0705D54FF4507303644FF40F
S1130F80507343648B0703D5002303640023436435
S1130F90480707D541F23400805850F4806041F28C
S1130FA034039850080707D541F23400805830F4D0
S1130FB0806041F23401885000207047DFF8E0027D
S1130FC0CB0705D54FF45073C3604FF450730361DE
S1130FD08B0703D50023C36000230361480707D5AB
S1130FE041F23400805850F4006041F234039850C8
S1130FF0080707D541F23400805830F4006041F20C
S113100034018850D8E75FF0FF30D6E7DFF8881264
S1131010002802D001280AD012E041F23C004058D6
S113102050F0006041F23C0250500020704741F201
S11310303C00405850F0800041F23C025050F4E72C
S11310405FF0FF30F2E710F01F02030505D5D2B2BE
S1131050042A02DB5FF0FF3073E0D2B21A2A41DACD
S113106080B210F470439BB2B3F5805F03D0B3F544
S1131070005F1AD033E080B210F4C063B3F5806F20
S113108003D04FF4C063184203D18648D2B2125C35
S11310900AE0D2B2101F042801D3002204E08248DF
S11310A0D2B2101810F8042C1DE080B210F4C06302
S11310B0B3F5806F03D04FF4C063184203D17B486B
S11310C0D2B2125C0AE0D2B2101F042801D300226B
S11310D004E07748D2B2101810F8042C03E05FF053
S11310E0FF302EE00122D2B2002A02D15FF0FF309D
S11310F027E0D2B2012A01D1002022E01000C0B2C0
S11311004009012807D00FD3032808D005D30528A8
S113111009D006D308E0674906E0604904E0604965
S113112002E0654900E06549D2B212F01F0051F8AF
S1131130200030F4E060D2B212F01F0241F8220025
S1131140002070475449002802D0012817D02CE011
S113115059484FF4107202604FF4107242604FF419
S1131160107282604FF41072C26041F23C00405829
S113117050F4805041F23C025050002070474E48D9
S11311804FF4E86202614FF4E86242614FF4E862AE
S113119082614FF4E862C26141F23C00405850F46D
S11311A0005041F23C025050E7E75FF0FF30E5E7C2
S11311B03949002802D0012811D020E037484FF4E3
S11311C0087202604FF40872426041F234004058E1
S11311D050F0400041F2340250500020704737482C
S11311E04FF4C46202604FF4C462426041F23400BE
S11311F0405850F0800041F234025050EDE75FF067
S1131200FF30EBE72F48006850F478502D49086010
S113121000207047012804D128484FF44071C16070
S1131220FFE7002070471C49002802D05FF0FF3020
S113123008E041F23C00405850F0010041F23C0209
S1131240505000207047002824D11D48006850F4F5
S113125000401B4908601C48006850F488601A4923
S113126008601A48006850F48060184908601848FB
S1131270006850F48060164908601648006850F40D
S1131280C060144908601448006850F48060124932
S11312900860FFE7002070470070044000A004408D
S11312A000B00440803E04009C3E0400A03E0400C4
S11312B0BC3E04000090044000C0044000D0044040
S11312C03C8004403880044020B0044048A00440DE
S11312D04CA004403090044014B004405FF0FF3050
S11312E070475FF0FF3070474EF68851CEF2000130
S11312F0086840F470000860BFF34F8FBFF36F8F2E
S11313004FF00070E1EE100A70470000FFF7D2F8CA
S1131310002801D000F010F90020C046C04600F0BB
S11313201FF900F025F9000038B50C0011001A006F
S1131330002801D0002C01D10C201AE02368002BD6
S113134001D1012015E0046000240025C0E9044512
S113135000238360002343600023C3600023836170
S11313600023C361002303620023436203681B68F4
S1131370984732BD10B50400002C02D02068002824
S113138001D10C2026E020684068002801D101200A
S113139020E0200021680969884700281AD120002C
S11313A0216849688847002814D100202060002063
S11313B00021C4E90401002060600020A060002036
S11313C0E0600020A0610020E06100202062002095
S11313D06062002010BD70B504000D001600002CE2
S11313E004D02068002801D0002E01D10C2016E082
S11313F020688068002801D1012010E06560FFF7B3
S113140053FD2900C9B2C0B2FFF752FDB0FBF6F19B
S1131410002900D10121200022689268904770BD04
S113142070B504000D001600002C04D020680028BC
S113143001D0002E01D10C202CE020688068002807
S113144001D1012026E06560FFF72EFD2900C9B215
S1131450C0B2FFF72DFDA6FB00010F4A002300F0E8
S1131460ABF802000B00002B04D1002A02D10122A8
S113147000230AE032F0FF3033F00001002901D1EB
S1131480002802D05FF0FF32002311002000226800
S11314909268904770BD000040420F0080B500285C
S11314A002D00168002901D10C2008E00168C96854
S11314B0002901D1012002E00168C968884702BD02
S11314C010B50400002C02D02068002801D10C20A3
S11314D00BE020680069002801D1012005E020000C
S11314E02168096988470021216210BD002801D1C3
S11314F0002000E0C068704780B5002804D002686E
S1131500002A01D0002901D10C2008E002685269A8
S1131510002A01D1012002E002685269904702BD0D
S1131520002801D10C2006E000238361002303621C
S1131530C26181610020704710B5074979441831B0
S1131540064C7C44163404E00A68081D5118884788
S11315500146A142F8D110BD942C0400C82C04000B
S113156080B5024800F0A0F8002002BD883F0400C6
S113157000F092BA13F0004C03D55B42524263F17F
S113158000039CEA210C00F0178010B5644603D3D5
S11315904942404261F1000100F00EF8640004D3B6
S11315A04942404261F10001244203D55B42524268
S11315B063F1000310BD00001B4213D1094236D170
S11315C02AB18446B0FBF2F002FB10C2704700F06F
S11315D069BAFCD30022002370470B0002000021EB
S11315E000207047904271EB030CF6D370B5B1FA4A
S11315F081F4B3FA83F52C1BA340C4F1200532FA1D
S113160005F63343A2405FF00046E64002E05B0883
S11316105FEA3202841A71EB030524BF204629468F
S11316207641F4D302000B003000002170BD012A82
S1131630CFD970B5140C20D0B1FA81F4B2FA82F586
S1131640C4F120046419B4F12006D6D3B2405FF08B
S11316500044F440002502E052085FEA3303C61A4E
S113166071EB020E24BF3046714664416D41F3D3E1
S113167002000B002000290070BD0C46B1FBF2F102
S113168002FB11452D0445EA1045B5FBF2F402FBBB
S1131690145580B240EA0545B5FBF2F002FB105246
S11316A040EA044070BD00007CB5050068680F3056
S11316B004092401DFF8B8030460DFF8B8032060EC
S11316C0DFF8B40320604FF450710022200000F0D2
S11316D0EBF914F5C87095EC0C0B80EC0C0BC4F80A
S11316E09441D4F8980100090001C4F8980100F06D
S11316F04EF900F00EFD0500002D02D0280000F088
S113170092F8D4F8B801002804D0D4F8B861D4F819
S11317109C5117E0D4F89C01D82802D2D820C4F8F0
S11317209C01D4F89C0110F11005280000F0DCFCA9
S11317300600002E02D1042000F075F802213000CA
S113174000F02BFD2900300001F0C3F8A819401E59
S113175000090001E063D825280000F0C5FC06005C
S1131760002E02D1042000F05EF80121300000F0C8
S113177014FDA819401E0009000114F15005B0F130
S113178064016961286116F10F0000090001A86174
S11317906869BA49086001F056F90500002D02D0C5
S11317A0280000F040F8012114F5E07001F0AFF9D1
S11317B0012114F59A7001F0AAF901F08FFA0500DD
S11317C0002D02D0280000F02EF800200190002007
S11317D0009001230022E069C16814F5387000F01C
S11317E0B5FF0500002D02D1042000F01CF82800EC
S11317F001F079F8002001900020009001230022DC
S1131800E069C16814F5307000F0A0FF0500002DF8
S113181002D1042000F007F8280001F064F837F042
S11318203FF8002076BD80B5002001F06CFB9048A5
S11318300068FEE78E4909680881704780B58C49C5
S11318400968082804D30C2000F019FF002003E0E5
S113185011EB8000D0F8900202BDF8B504000D0031
S113186083480668082C04D30C2000F008FF0020ED
S113187015E001F048FB16EB8400D0F89072002FBD
S113188004D116EB8400C0F8905205E0002D03D17A
S113189016EB8400C0F8905201F045FB3800F2BD0D
S11318A02DE9F04104000D001600B6EB0508704860
S11318B00768082C03D2002D01D0002E04D10C207F
S11318C000F0DDFE0C2026E001F01DFB17EB840088
S11318D0D0F89002A84203D101F025FB19201AE0A8
S11318E017EB8400D0F89002FFE7002807D058F8DF
S11318F00000A842F9D101F016FB19200BE017EB08
S11319008400D0F8900217EB8401C1F89052306043
S113191001F009FB0020BDE8F0812DE9F04107004A
S11319200C00151B19265248D0F80080082F03D24A
S1131930002C01D0002A04D10C2000F0A0FE0C20C1
S113194023E001F0E0FA18EB8700D0F89002A042FF
S113195008D1285918EB8701C1F8900200202851BA
S113196000260FE018EB8700D0F8900200E0080092
S1131970002807D02958A142F9D16A582A500020DA
S11319806850002601F0CFFA3000BDE8F08110B5B0
S11319903748046843F6F93020824FF4C5706082FA
S11319A008202060012060600220E0810F20608117
S11319B00F20A081D4F8A001002802D10120FFF754
S11319C032FF0120C4F8040101F016F814F15000AC
S11319D0E061E18A6183E18A8184D4F89011090489
S11319E041F47F4151F0FF01C16003218160002176
S11319F014F5947001F080FB002114F5B47001F02B
S1131A007BFB0020D4F8A011002205E0CB689842AB
S1131A1000D2C868521C20310B68002B03D04FF64B
S1131A20FF739A42F2D3C4F8000114F53871144AD2
S1131A300A604FF407628A60124A0A61124A4A60D5
S1131A40421CCA6014F53071104A0A60E0228A60B0
S1131A500F4A0A610F4A4A60801CC860002114F5CD
S1131A60847001F049FB0120C4F8140110BD00008A
S1131A70F000FF1F383004003C3004006C21FF1FCD
S1131A80040000800C30040045F8020003000080CC
S1131A901C300400E9F702000746384601F088FBD1
S1131AA0FBE700007047000062F30F2262F31F425D
S1131AB0401810F0030308D0C91A1FD3DB0748BF2E
S1131AC000F8012D28BF20F8022D130030B414466D
S1131AD01546103928BF20E93C00FAD8490728BF29
S1131AE020E90C0048BF40F8042D890028BF20F8E5
S1131AF0022D48BF00F8012D30BC7047C91818BF2B
S1131B0000F8012DCB0728BF00F8012D7047000015
S1131B102DE9F84305000E001F005FF000091400D2
S1131B205FF00008A068DFF8B416884204D03820BB
S1131B3000F0A5FD002075E00C35102D00D2102515
S1131B4015F10F0005092D0101F0DDF96069009020
S1131B50D4F8149004E0DDF80090009880680090B8
S1131B60009800284BD00098A06101F0DCF901F046
S1131B70CAF90098A169884203D060690090DDF831
S1131B800090009800283AD000980068A842E2D358
S1131B90411B102909D3009828180160446000995A
S1131BA08968816000990D6002E0050000988068F2
S1131BB000996269914201D1606101E0C9F80800AD
S1131BC0F0680099088100200099488100984460D9
S1131BD00098009909680818401EE16A814200D201
S1131BE0E062002F08D00098B5F10C01002210F13A
S1131BF00C052800FFF758FF009810F10C086069E5
S1131C00A0616069E06160692062E0686062E06828
S1131C10A06201F088F9B8F1000F02D1042000F0AD
S1131C202EFD4046BDE8F2832DE9F04182B0060066
S1131C308846170000201C000025A068DFF89C15CA
S1131C40884204D0382000F01AFD002074E00C36DD
S1131C50102E00D2102616F10F000609360101F0ED
S1131C6052F96069009003E0009800988068009041
S1131C70009800284ED00098A06101F054F901F0BA
S1131C8042F90098A169884202D0606900900098E6
S1131C90009800283ED000980068B8F10C01009A22
S1131CA010329142E0D30099411816EB08020C3A25
S1131CB09142D9D3B8F10C01009A8B1A801BC21A35
S1131CC000980360102A08D3701802604460009AD8
S1131CD092688260009A906002E096190098806889
S1131CE00E608860F8680881002048814C60009884
S1131CF0009909680818401EE16A814200D2E06236
S1131D000898002805D0B6F10C0100224046FFF7E0
S1131D10CBFE45466069A0616069E061606920624C
S1131D20E0686062E068A06201F0FDF8002D02D175
S1131D30042000F0A4FC2800BDE8F681F0B583B0CF
S1131D4004000E00150001930027102C00D210246B
S1131D50002E07D0701E064204D00C2000F08FFC29
S1131D600020B2E0102E00D2102601988068DFF81F
S1131D706C14884204D0382000F081FC0020A4E0D8
S1131D800C34102C00D2102414F10F000409240187
S1131D9001F0B9F801984069009003E000980098B8
S1131DA0806800900098002873D0019800998161A0
S1131DB001F0B9F801F0A7F80098019989698842FF
S1131DC003D001984069009000980098002860D0E2
S1131DD0009830180C30711E88430099401AB0F1F5
S1131DE00C02202A08D2009830183C30711E884317
S1131DF00099401AB0F10C02009801681019814250
S1131E00CCD30098009BD3180093891A026082688F
S1131E10009B9A600A1B102A0AD3009961180A6071
S1131E20019A4A60009A92688A60009A916002E07E
S1131E300C0000998968009A1460009A019B5B6900
S1131E409A4202D10198416100E08160E8680099FA
S1131E500881002000994881009801994160009808
S1131E60009909680818401E0199C96A814201D283
S1131E700199C8620898002808D00098B4F10C01B0
S1131E80002210F10C042000FFF70EFE009810F160
S1131E900C0701980199496981610198019949697F
S1131EA0C161019801994969016201980199C96860
S1131EB0416201980199C968816201F034F8002FE8
S1131EC002D1042000F0DBFB3800FEBD80B5DFF852
S1131ED0101309680023D1F81023C969FFF718FE0D
S1131EE002BD80B5DFF8F822126800230093D2F80F
S1131EF01033D269FFF798FE02BD80B5DFF8E02207
S1131F00126800230093D2F81033D269FFF716FF4A
S1131F1002BD80B502000800DFF8C412096800237E
S1131F20C969FFF7F5FD02BD80B5DFF8B412096891
S1131F300123D1F81023C969FFF7EAFD02BD80B57A
S1131F4002000800DFF8981209680123C969FFF745
S1131F50DFFD02BD38B50400DFF8840205685018BF
S1131F6000090001206111F10F0000090001E06087
S1131F70E0622169091A01600021816044606061A6
S1131F80A061E061206200F0BEFFD5F804030028E0
S1131F9004D1002115F5417001F0AEF8210015F5CA
S1131FA0417001F0AFF800F0BEFFDFF83002A0602E
S1131FB0200032BDF8B50021DFF82412096800289A
S1131FC004D1012000F05BFB012082E0B0F10C049D
S1131FD06568A868DFF80422904204D0382000F035
S1131FE04EFB382075E02089C969C96889B28842E6
S1131FF009D020894FF6FF71884204D0032000F0F5
S11320003EFB032065E000F07EFF6E6909E0B668E0
S1132010EE6100F088FF00F076FFE869864200D0A8
S11320206E696869002802D06869844214D26E69B6
S113203020680019B0420BD120683168081820606C
S1132040B068A0600C2100223000FFF72DFD00E0F5
S1132050A6606C61002006E0B068844202D3B068D8
S11320600028D4D10120002826D020680019B168A6
S113207088420ED12068B168096808182060B068E9
S11320808068A0600C210022B7683800FFF70CFDBF
S113209001E0B068A06030688019A0420BD13068BC
S11320A0216808183060A068B0600C21002220006C
S11320B0FFF7FAFC00E0B4606869A8616869E86148
S11320C068692862E8686862E868A86200F02BFF23
S11320D00020F2BD80B502000800414909680023D0
S11320E05031FFF715FD02BD80B53D490968002355
S11320F0D1F810235031FFF70BFD02BD80B5384AEB
S1132100126800230093D2F810335032FFF716FE02
S113211002BD80B53248026812F550710800C2F859
S113212010033031D2F89821521AFFF713FF002020
S113213002BDF8B504000D0029480668002D03D13E
S1132140D6F80473FD6803E00C3D6F6828684519F0
S113215000F0D9FE786901E029684D1939698D428A
S113216011D22989E26892B29142F5D100E08068E7
S1132170002801D0A842FAD3A842EDD000F0D3FE43
S113218015F10C0008E03F68FD6816F541708742C0
S1132190E0D100F0C8FE0020F2BD002803D00C38C6
S11321A04181012000E0002070470C38C96801819A
S11321B0704780B5020008000949096801235031BD
S11321C0FFF7A6FC02BD80B5054909680123D1F8D3
S11321D010235031FFF79CFC02BD000070656D6C4C
S11321E0F000FF1F70B582B00C0011000025DFF86D
S11321F058251268002C04D5152000F040FA002060
S113220018E080B2002816D1D2F890010093002380
S11322100022200000F04BFA0400002C09D0E568ED
S113222000F071FE200000F05EFB00F07CFE36F052
S11322303BFB280076BD80B2FF2804DD132000F0AC
S11322401EFA0020F6E780B2D2F890219042DDD049
S1132250132000F014FA0020ECE780B5002380B2CC
S1132260FFF7C0FF02BD10B582B00C001100DFF80B
S1132270D8241268002C04D5152000F000FA0020A0
S113228024E080B200280ED1D2F890010020009002
S113229000230022200000F00AFA002815D00321B0
S11322A08160C06812E080B2FF2804DD132000F0D2
S11322B0E6F900200AE080B2D2F890219042E5D0FD
S11322C0132000F0DCF9002000E0002016BD2DE909
S11322D0F843DFF874140C68002808D0010CD4F813
S11322E0902189B292B2914201D012200AE100F009
S11322F09DF90500002D03D014F15000854201D151
S11323001220FFE014F59A7000F0ACFC00F0FBFD25
S1132310A868092807D100F006FE14F59A7000F0A9
S113232068FC0020EEE0A868022807D1E069854235
S113233028D0686829680160486023E0A868C0055F
S113234014D5A868C0051DD568682968016048606F
S1132350B4F87001401EA4F87001A86830F48070CD
S1132360A860A86850F00300A8600BE0A868800586
S113237008D56868296801604860A86B0089401E18
S1132380A96B0881A868400508D5286CE96B016031
S11323904860A86B0089401EA96B08810920A860C9
S11323A0A06CA84201D10020A06400F0BCFD00266E
S11323B00CE014EB8600D0F81C02002805D028009D
S11323C014EB8601D1F81C128847761C102EF0D32A
S11323D0EF68E66900212800FFF7ABFE804618E0AD
S11323E041462800FFF7A5FE8146AE4204D014F111
S11323F050014046FFF7D9FEA84509D0D5F88C0016
S1132400804505D0686B804502D04046FFF7D2FD79
S1132410C846B8F1000FE3D15FF00040E860B4F8BB
S11324201001012806D10120C4F814010020C4F8C9
S113243018010BE0BFB2D4F81401874206D2BFB230
S1132440C4F81471286F6C38C4F81801286FE96E49
S113245001604860B4F81001401EA4F8100114F59E
S11324609A7000F0C6FBB54231D100F04CFD6868AB
S1132470296801604860686B002809D014F1500194
S1132480686BFFF792FE686BFFF794FD00206863AA
S1132490280000F097FE95F82800800615D4D5F89A
S11324A08C00002809D014F15001D5F88C00FFF7F6
S11324B07CFED5F88C00FFF77DFD14F15001280057
S11324C0FFF773FE2800FFF775FD36F0EBF9686B34
S11324D0002804D0686BFFF76DFD002068632800B6
S11324E000F070FE95F8280080060AD4D5F88C0018
S11324F0002803D0D5F88C00FFF75CFD2800FFF717
S113250059FD0020BDE8F28380B50021FFF7DFFE0E
S113251002BD80B500F08AF8002801D0806E00E08A
S1132520002002BDF8B50D001600DFF81C120F687C
S1132530D7F80011A94201D20C203BE000F076F854
S11325400400002C01D1122034E000F0DCFC206AED
S1132550C0893060386A7FF00F0101FB05002062FA
S1132560206D002808D0E069C089854208D229007E
S1132570200000F087FE03E02900200000F082FE26
S1132580A06840F2292188420FD1A06B1038017B4A
S113259009070AD5616822680A605160018B491EE7
S11325A001832100103000F046FE36F07DF900F082
S11325B0BAFC0020F2BD10B50400DFF88C010068FD
S11325C0002C03D1122000F05AF81CE0E168090C39
S11325D089B2D0F89001814203D0122000F04FF864
S11325E011E000F090FCA068022805D100F09BFCEB
S11325F0112000F044F806E0200000F074F900F027
S113260092FC36F051F910BD10B54F480068C4690A
S113261000F079FCA06A50F48050A06200F083FCC2
S113262010BD49480068C069C068704770B50400AF
S113263045480568002C01D1E8691FE0E86D844233
S113264002D115F1500019E000F05DFCD5F8080145
S1132650B0F16C06B5F8100102E0F16EB1F16C0650
S11326600100481E002906D0F168A142F5D100F00E
S11326705AFC300002E000F056FC002070BD3249E4
S11326800A68118B002902D0516BC96801E0D16935
S1132690C96D002801D0002907D1138B002B02D06B
S11326A0526BD06001E0D269D065080070472DE913
S11326B0F04383B00F0014001D0023490E68002866
S11326C011D05FF00008B946D6F8A07100E02037B9
S11326D03968002902D039688142F8D13868002865
S11326E005D1002703E0D7F818905FF00108002F08
S11326F004D11020FFF7C3FF002012E016F59A70F2
S113270000F0B0FA0195009443464A46F069C16866
S1132710380000F01BF8040016F59A7000F069FA0E
S11327202000BDE8FE83000080B507480068C0694A
S1132730D0F88410002902D0D0F88400804700200B
S1132740FFF7E2FE01BD0000F000FF1F2DE9F44F8A
S113275084B004000D009B46A1480668D6F8000129
S1132760E16888420CD216F53870844208D016F518
S11327703070844204D00E20FFF781FF0020A5E0D2
S11327800E9F002F19D0DDF83C80B8F5BE7F04D829
S11327900220FFF774FF002098E000233A0002A90A
S11327A0404600F0B4F881460298B8EB0008BBF14B
S11327B0000F1CD0B8F1200819E0D4F80880B8F153
S11327C0D90F01D25FF0D80818F10F005FEA101892
S11327D05FEA0818BBF1000F02D018F1200000E0F6
S11327E040460023002202A900F091F88146B9F185
S11327F0000F04D10A20FFF742FF002066E0032007
S1132800C9F80800D9F88C00002802D0D9F88CA0A7
S113281004E0029810EB090AC9F88CA0BBF1000F80
S11328200BD050461AF1200A94EC080B80EC080BEC
S11328300400206850F0004020604146504600F0FB
S113284048F8306AE1687FF00F0202FB0100C9F822
S11328501C00C9F820008189A9F824106169C9F80D
S11328602810002F05D0D9F8281051F02001C9F8FC
S11328702810049901918089009023004246514612
S1132880484600F033FD002801D100201EE0C9F8BD
S113289068402068C9F86400D6F88402C9F8740056
S11328A0D6F88802C9F87800D6F88C02C9F87C00FA
S11328B0C9F86050002F08D149464846FFF775FC17
S11328C04946D9F88C00FFF770FC484605B0BDE8CE
S11328D0F08F8908491C02E0424A0260001D491E2B
S11328E00029F9D1704710B43D490968C269536899
S11328F04C6A944200D24A620221816043601968A2
S113290001601860506010BC70474069704770B532
S113291006001400A420324A1568B5F810214FF6B9
S1132920FE739A4201DB002058E00860002C05D0B9
S1132930002201002000FFF7B7F81FE0FFF7F4FAC8
S11329400400002C04D03000FFF7C0FAC4F88C0057
S1132950002C01D1200041E0D4F88C00002804D1DF
S11329602000FFF727FB002038E024212000FFF798
S113297014FC2521D4F88C00FFF70FFCD5F8146162
S1132980D5F81811D5F89001B6B256EA0040E060C7
S1132990002902D115F5847100E06C3114F16C0248
S11329A015F5847000F0E4FB20000100C86EB0F15E
S11329B06C021000761CB6B2002E00D1012615F56B
S11329C084739A4204D0D26892B2B6B2B242ECD0C6
S11329D0C5F81811B6B2C5F81461200070BD000026
S11329E0F000FF1F6B617473C26D002901D0002ACF
S11329F000D1C165100070472C48006810F5C871FB
S1132A004A69082A03D3072207234B6104E0002AFA
S1132A1002D1012201234B61510111F0E001C18275
S1132A20002003E0C021224A8154401C6A28F9D3C3
S1132A302049002004E05FF0FF3241F82020401CD0
S1132A400428F8D3704770B5184804680020206241
S1132A50D4F80001C61C3001FFF766FA0500002D0A
S1132A6001D1042021E005212800FFF796FB05E0B1
S1132A700020A881206AA860256210353000461E17
S1132A8000280FD02D606D60EE81D4F8A401801968
S1132A900828EDD2D4F8A4018019400110F0E00018
S1132AA0A881E7E7206A6062002070BDF000FF1F84
S1132AB000E400E080E100E070B504001500DFF8F8
S1132AC014020668A161002114F1080000F014FB4F
S1132AD000F019FA002D13D1D6F8280100E000689F
S1132AE016F59471884206D0A042F8D100F01BFA82
S1132AF04FF482600AE0210016F5947000F002FBA6
S1132B00DFF8D401606100F00EFA002070BD80B5DA
S1132B1000230022FFF7D0FF02BD80B5002301226D
S1132B20FFF7CAFF02BD38B50400DFF8A801056845
S1132B3000F0E9F96069DFF8A011884203D000F0E1
S1132B40F2F91F2038E0002060611AE014F1080057
S1132B5000F0F7FA3C388168C90510D5416802686D
S1132B600A605160B5F87011491EA5F870118168AA
S1132B7031F480718160816851F003018160FFF755
S1132B80B2FE208A0028E1D1D5F8280100E00068CF
S1132B9015F5947188420AD0A042F8D16068216882
S1132BA001604860B5F83001401EA5F8300100F01E
S1132BB0BAF935F079FE002032BD80B50021FFF767
S1132BC0B2FF02BD10B5040060694349884201D0D8
S1132BD000200DE000F097F9A069012801DA002433
S1132BE003E0A069401EA061012400F09CF92000CC
S1132BF010BD38B50500374804686869364988420D
S1132C0001D01F202DE000F07EF9A869002822D40D
S1132C10288A00281FD015F1080000F092FA3C38E9
S1132C208168C90510D5416802680A605160B4F82A
S1132C307011491EA4F87011816831F480718160AB
S1132C40816851F00301816000218163FFF74BFE2D
S1132C5035F02AFE02E0A869401CA86100F063F97F
S1132C60002032BD38B504001A480568288B0028B6
S1132C7001D00D202CE060691749884201D01F2043
S1132C8026E000F040F9A069012813DAE86940F26F
S1132C902B41816014F108018163416802680A6074
S1132CA0516010F13C0114F1080000F02BFA35F0EA
S1132CB009FE02E0A069401EA061606906498842DD
S1132CC003D000F030F91F2002E000F02CF90020BE
S1132CD032BD0000F000FF1F6D73776C10B542F237
S1132CE02800FEF7A7FD5FF000510020FFF7F9F878
S1132CF0FA21002000F04BFB0400002C01D020003E
S1132D0053E0584800F04EFB02230022564957482E
S1132D10FEF70AFB0400002C01D0200045E0C82285
S1132D2000215248FEF757FB0400002C04D04F4802
S1132D30FEF720FB200038E000220FF20D114B4873
S1132D40FEF7EEFB0400002C04D04848FEF712FB0B
S1132D5020002AE04548FEF7A1FB0400002C04D023
S1132D604248FEF707FB20001FE041480068414944
S1132D70C0F88011C82000F09BFC3C48FEF7B6FB6D
S1132D8000F0A2FC00210FF2C90000F096FC8020A4
S1132D90394908700520FEF769F80320FEF76DF83D
S1132DA0002801D0262000E0002010BD00B585B029
S1132DB0324800F03EFD002844D100F051FE0028C6
S1132DC040D12F4802682E492E4800F091FE2E482B
S1132DD0836A2D48426A2C492C4801F016FC2C4980
S1132DE02C4801F0D7FD2C492C4801F0D3FD2C4987
S1132DF02C4802F0CFF92C492C4802F0CBF92C488E
S1132E0002F0F0FC2B492C4802F032FE2B492C48EE
S1132E1003F012F92B4804F02DF804F03DF90120D9
S1132E200390294802900120019028480090012332
S1132E30274A0221002004F07AF90721002004F037
S1132E4007FA002005B000BD80B500F0C4FB01BD49
S1132E5000B585B069460548FEF74EFB029805B0FB
S1132E6000BD000000000000F03C04003002FF1F21
S1132E70F000FF1FC027090000E00740EC38040001
S1132E80B03904000C370400DC39040014370400A2
S1132E90643904001C370400783904002437040022
S1132EA0203A04002C370400503A0400343704005C
S1132EB03C370400D4380400443704004439040087
S1132EC04C37040094390400220000802300008061
S1132ED04700008038B50400DFF810020068C569B7
S1132EE000F011F8A8680B280AD00B20A860AC6386
S1132EF041212800FFF778FD68682968016048606F
S1132F0000F011F831BDDFF8E4010068C169496DD2
S1132F10002902D1C18A81F31188C169496D491C14
S1132F20C06941657047DFF8C4010068C169496D33
S1132F30002913D0C169496D491EC2695165C1692F
S1132F40496D00290AD1018B002904D0406B8068A7
S1132F5080F3118802E0408B80F311887047634846
S1132F600068806A70470020704738B504005F48E5
S1132F700568A86B002804D11820FFF780FB002007
S1132F8020E0E86A844202D3286BA04204D21420D1
S1132F90FFF775FB002015E0FFF7B5FFA86BE96AA2
S1132FA0611AC90850F8215000E02D69002D02D0A3
S1132FB02868A042F9D1FFF7B6FF002D01D0E868D8
S1132FC000E0002032BD2DE9F04104000D001600A0
S1132FD046480768B86B002804D11820FFF74FFB58
S1132FE000204CE0F86A844202D3386BA04204D239
S1132FF01420FFF744FB002041E0FFF784FFB86B87
S1133000F96A611AC90850F8218001E0D8F81080E3
S1133010B8F1000F03D0D8F80000A042F6D1B8F1FF
S1133020000F21D11420FFF75FF88046B8F1000F9C
S113303006D1FFF778FF0420FFF721FB00201EE0F4
S113304023214046FFF7A9F8B86BF96A611AC90849
S113305050F82100C8F81000B86BF96A611AC90861
S113306040F82180224F01E0D8F80470C8F80040ED
S1133070C8F80450C8F80C60FFF755FF3800BDE8E5
S1133080F0812DE9F04104000D00A54201D20C208D
S11330902AE0164806681748C6F8F4001448B062D7
S11330A0281B401CC00810F101085FEA8800FFF7E4
S11330B08AF80700002F01D1042015E0032138000D
S11330C0FFF76BF8B763F4623563A6F83C8303201B
S11330D0A6F83E0302E0002047F828004046B0F17D
S11330E001080028F7D10020BDE8F081F000FF1F9F
S11330F0D52E0000018A0300006040600022028196
S11331004181704738B504000D00FFF7FCFE60896B
S1133110002807D020896189884203D3FFF703FF81
S113312000200DE060680068286061680D606168D7
S1133130696045602089401C2081FFF7F4FE01206E
S113314032BD38B50400FFF7DEFE2089002803D124
S1133150FFF7E9FE00200AE0256868682968016035
S113316048602089401E2081FFF7DDFE280032BD23
S113317070B504000D001600002D00D12500FFF7E6
S1133180C2FE6089002807D020896189884203D360
S1133190FFF7C9FE00200AE0286830602E607560E1
S11331A046602089401C2081FFF7BDFE012070BDD0
S11331B080B5C046C046024A11001820ABBEFBE7EA
S11331C0260002007047000010B547480068C46933
S11331D0FFF799FE60682168016048602000FFF7EE
S11331E082FB35F06FFBFFF79EFE10BD80B5826A4F
S11331F052F400428262026D521C026500F042F8F1
S113320035F052FB01BD80B5826A120412D5026DFD
S1133210914203D2026D511A01650BE00021016550
S1133220816A31F400418162016AC98900F02AF897
S113323035F03AFB01BD70B5030002680489651CD2
S1133240CC69E48901E0130012686D1E002D03D0DF
S1133250D669F689B442F6D20A001900FFF788FF4E
S113326070BD01680089421C5FF0FF3006E0CB6945
S1133270DB89834201D2C869C0890968521E002AC9
S1133280F5D17047F8B504000D0017480668306A98
S1133290E169CF897FF00F0101FB05008189A184D9
S11332A0E061A068022817D1606821680160486065
S11332B02000FFF718FBF069A04206D1A08C7083B0
S11332C0AF420FD235F0FEFA0CE0606D002809D150
S11332D02000FFF71AFB05E0606D002802D12000F2
S11332E0FFF713FBF1BD0000F000FF1FF8B5040069
S11332F01D0001265018401E00090001B0F16407AA
S1133300206111F10F0000090001A06167616421CF
S113331000223800FEF7C8FB0E4838640798F862AC
S1133320696851F0010179645FF08071B964B8652E
S113333000203860069878607FF00200B86294F844
S11333402800800703D5200000F006F806003000AE
S1133350F2BD00002927000038B504009420FEF7D0
S1133360E3FD0500002D05D104212000FFF73CFBFF
S113337000200BE022212800FEF70FFF2100280087
S1133380FEF713FFE06828616563012032BD10B5C4
S1133390FFF777FE0400002C01D103F0A5FF200005
S11333A010BD000002490968014A10600800704716
S11333B008ED00E038B5DFF81C130C68002802D1D2
S11333C0FFF702FF1BE0E569401E15F1440103F01D
S11333D093FFD5E91101801C51F10001C5E91101E8
S11333E0FFF791FD15F1440214F5A87115F144009D
S11333F003F0C2FF280000F01EF8FFF794FD31BD72
S113340070B50400DFF8CC020568002C03D10C2051
S1133410FFF735F90EE0EE69FFF775FD16F144028A
S113342015F5A871200003F0A7FF300000F003F8A1
S1133430FFF779FD70BDF8B50400DFF89802006865
S113344010F5B471B0F87021002A27D0D0F8685173
S1133450B0F8702112F1010C01E029002D68BCF1D3
S1133460010CBCF1000F19D0D4E91167D5E911237F
S11334709F4204D801D3964201D201220CE0D5E93F
S11334801167D4E911239F4205D801D3964202D291
S11334905FF0FF3200E00022002ADED46268236875
S11334A013605A60220010F5B470FFF761FEA06843
S11334B050F48070A06035F005FAF1BD70B50400D9
S11334C0DFF810020668002C02D1FFF77DFE0FE042
S11334D0F569FFF718FDD6E95423200000211018E0
S11334E05941C5E911012800FFF7A5FFFFF71BFDAE
S11334F070BD38B5DFF8DC110968002803D10C2051
S1133500FFF7BDF80DE0CC6914F144012CC82CC1BF
S11335100C380C39FFF7F7FC2000FFF78CFFFFF79E
S113352002FD31BD10B584B00400002C06D06846FD
S113353000F005F82100684603F042FF1FBD38B5CE
S11335400400002C19D0DFF88C010568FFF7DBFCC0
S113355015F5A8700EC80EC40C380C3CD5F88801BB
S1133560002805D0D5F88C01D5F888118847A060CB
S1133570FFF7D9FC200003F071FF31BDDFF85401DF
S11335800068D0F87C017047DFF848010068D0F883
S11335907C014FF47A71B1FBF0F0704730B400282D
S11335A001D10C2015E000290CD000228260DFF844
S11335B02821D2E900450A000023A2186B41C0E982
S11335C0002305E0DFF810111CC91CC00C390C38AD
S11335D0002030BC70472DE97043DFF8F800046820
S11335E0D4E95401401C51F10001C4E95401FFF72E
S11335F08AFCD4F88801002806D0D4F88C01D4F8C9
S113360088118847C4F8580114F5A87003F026FF00
S1133610B4F87051002D39D0D4F8680117E0B4F82B
S11336207011491EA4F87011416802680A60516063
S11336308168490508D5016CC26B0A605160816BD1
S11336400989491E826B1181FFF74DF93000290069
S11336504D1E00291AD00668D0E91123D4E95489F3
S11336604B4504D801D3424501D201210CE0D4E9F1
S11336705423D0E911894B4505D801D3424502D2E0
S11336805FF0FF3100E000210029C8D5FFF74BFCB3
S1133690D4F80003002802D0D4F800038047D4F8FB
S11336A03803002802D0D4F838038047BDE870837B
S11336B008490968C1F87C017047064A1268C2F8D3
S11336C08801C2F88C11704702490968C1F8840165
S11336D070470000F000FF1F2C3004002DE9F84370
S11336E004000D0016001F00002E02D55FF0010932
S11336F001E05FF00009002E01D57642FFE7012EBC
S113370005D0022E03D0042E01D00C203AE0DDF8BF
S113371020808C4858EA050111F0030150F821007B
S1133720B04201D20C202DE0302100222000FEF70F
S1133730BBF9B9F1000F0AD0F019401E2060012036
S113374060605FF0FF30A0607000A0620DE07D4813
S113375058EA070111F0030150F82100864201D212
S11337603000FFE727606060A0602561666100208B
S1133770A0612662022096FBF0F038FA00F8C4F843
S113378024800020BDE8F2832DE9F8430400884634
S113379015001E0015F1010F02DA5FF0010901E0C6
S11337A05FF00009002D01D56D42FFE7012D05D022
S11337B0022D03D0042D01D00C2038E0089F61486D
S11337C057EA080111F0030150F82100A84201D280
S11337D00C202CE0302100222000FEF765F9C4F80B
S11337E0008065600020A060B9F1000F0AD0A8191C
S11337F0401E2061012060615FF0FF30A06168001D
S1133800E0620DE04F4857EA060111F0030150F859
S11338102100854201D22800FFE726616061A06192
S11338202562022095FBF0F0C74067620020BDE8E6
S1133830F28310B50400002C01D1012021E000F036
S113384021F8414804600020404908603E4804686B
S113385005E03E480068401C3C4908600C34A06800
S113386000280DD020680028F3D0206800680028C4
S1133870EFD060682168096888470028E9D000E033
S1133880002010BD38B500242F480068002801D15D
S113389000201EE02C48056813E0286800280AD0A0
S11338A028684068002806D06868296849688847FD
S11338B0002C00D104000C3524480068401E234924
S11338C00860224800680028E7D100201E490860EB
S11338D0200032BD38B50400002C01D101202EE0B7
S11338E0002901D50C202AE01748056802E0A868E1
S11338F0091A0C35A868002802D0A8688142F6DAB3
S1133900A868002801D10C2019E02868002803D0F9
S113391028688068002801D12C2010E00A0069681A
S113392020002B689B689847002808D129682268E2
S1133930116000212268516000212268916032BD2B
S113394000000000B03B0400C022FF1FC422FF1F80
S113395080B5002802D00168002901D1012008E0C7
S11339600168C968002901D12C2002E00168C968F6
S1133970884702BD80B5002802D00368002B01D11E
S1133980012008E003685B69002B01D12C2002E0D0
S113399003685B69984702BD80B5002802D00368BC
S11339A0002B01D1012008E003689B69002B01D1A1
S11339B02C2002E003689B69984702BD80B500286B
S11339C002D00368002B01D1012008E00368DB6901
S11339D0002B01D12C2002E00368DB69984702BD6B
S11339E080B5002802D00268002A01D1012008E035
S11339F00268126A002A01D12C2002E00268126ACD
S1133A00904702BD80B5002802D00168002901D189
S1133A10012008E00168496A002901D12C2002E054
S1133A200168496A884702BD80B5002802D0016850
S1133A30002901D1012008E00168896A002901D127
S1133A402C2002E00168896A884702BD002801D160
S1133A50012004E00023436082604160002070473D
S1133A6010B506480468002114F51E70FFF744FBE6
S1133A70012114F51770FFF74AF810BDF000FF1F7D
S1133A8010B400230024002917D0002A15D01301F4
S1133A90B1FBF3F3002B0BD01C0104FB12115408EF
S1133AA014EB4101B1FBF2F4202C01D35B1C002484
S1133AB0B3F5005F01D316200EE0190A11F01F01BF
S1133AC001704370817A11F0E0018172817A14F0FF
S1133AD01F0211438172002010BC7047C17851F05D
S1133AE00C01C1707047C17811F0F301C1707047C7
S1133AF000B585B0049203910FF2DD1102910FF22B
S1133B00811101910FF2591100910FF239130FF243
S1133B1005120FF20D0103F0BBFC05B000BD00005F
S1133B202DE9F04106000F0075682800C0B203F0CB
S1133B3045FF0400002C01D12B2069E04FF498705C
S1133B40FEF741FB8046B8F1000F01D104205FE08D
S1133B50C7F80080C8F82C40404631002C2203F0FE
S1133B6071FF0120C8F84C00D8F808701526310000
S1133B70C9B22800C0B2FDF7F3F904212800C0B28D
S1133B80FDF7EEF9D8F80C2039002000FFF778FF94
S1133B900020A070E07810F0FD00E070A07A10F032
S1133BA03F00A07200202072002060720020A071EB
S1133BB0207CC0F30210C0B2002802D10020E074BF
S1133BC007E00120217CC1F30211491C8840401EFA
S1133BD0E07401206075E07810F0F300E070207C60
S1133BE050F088002074607C50F0C0006074F006CF
S1133BF003D52000FFF772FF02E02000FFF773FFF8
S1133C00300704D508212800C0B2FDF7A9F9002027
S1133C10BDE8F08170B504000D000426042160683D
S1133C20C0B2FDF79DF90020E96AC870300704D5D9
S1133C3008216068C0B2FDF793F92800FEF7BAF9CD
S1133C40002070BD38B50400E56A01E0FFF7BCFA56
S1133C5028798006FAD5606D401C6065E87932BD2C
S1133C6070B504000D00E66A01E0FFF7ADFA3079A3
S1133C700006FAD5F571A06D401CA06570BD00006A
S1133C80C16A0A79130702D5836E5B1C8366D30766
S1133C9002D5036E5B1C0366530702D5036F5B1CDE
S1133CA00367930702D5436E5B1C43660A200242F6
S1133CB00BD0C879887CC00707D5487C50F04000F9
S1133CC04874887C50F001008874887C400601D4D4
S1133CD0012000E00020704770B582B00600150096
S1133CE0F46A00207068C91E00F06781491F00F063
S1133CF06B8140F6FA42891A00F02E81491E72D077
S1133D00491E73D0491E7CD0491E00F09380891F40
S1133D1032D0491E1ED0491E00F06F81491E00F0AA
S1133D206281491E00F0B080491E00F0A180091F85
S1133D3000F09180491E00F09480491E00F02C810F
S1133D40491E00F03681C91E00F09181491E00F021
S1133D50A881C0E10820A178C9060AD596F84C10BC
S1133D60C90706D5A178890702D5A17A890600D5A5
S1133D70401C2860002076BD2868082804D02868E4
S1133D80092801D00C20F6E72868082814D196F8F1
S1133D904C00C0070AD5A07A10F0DF00A072A0780A
S1133DA0800704D5A07850F01000A070E2E7A07856
S1133DB010F0EF00A070F9E796F84C00C00710D59A
S1133DC0A07850F01000A070A078800704D5A07AE5
S1133DD050F02000A072E9E7A07A10F0DF00A07292
S1133DE0E4E71620C7E7F0682860C3E7B0682A68EC
S1133DF001002000FFF744FE0028BCD12868F060D1
S1133E00B8E7306D28602D1D706D28602D1DB06DD4
S1133E1028602D1DF06D28602D1D306E28602D1D2D
S1133E20706E28602D1DB06E28602D1DF06E286008
S1133E302D1D9FE700203065002070650020B065CF
S1133E400020F06500203066002070660020B06617
S1133E500020F0668EE72079C0B2C009C0B22860A5
S1133E6088E72079C0B2400910F00100286081E79A
S1133E700120A178890705D5A078C00701D50220C3
S1133E8000E00320286075E72868012804D061D386
S1133E90032838D014D35DE0A07880070FD5A0782C
S1133EA010F0FC00A070A07A800604D5A07A10F06F
S1133EB0DF00A07203E0A07810F0EF00A07059E7D3
S1133EC096F84C00C00701D4162054E7A078800768
S1133ED004D5A07850F00100A07013E0A07850F051
S1133EE00300A070A078C00604D5A07A50F020008A
S1133EF0A07207E0A07A10F0DF00A072A07850F062
S1133F001000A070DBE796F84C00C00701D416201F
S1133F1031E7A078800704D5A07810F0FE00A070E7
S1133F2017E0A07850F00200A070A07810F0FE0016
S1133F30A070A078C00604D5A07A50F02000A0722A
S1133F4007E0A07A10F0DF00A072A07850F0100013
S1133F50A070B4E70C200EE7287880060BD57068B3
S1133F60FDF758F9607B10F0F6006073607B50F049
S1133F70020060730FE02878000708D5607B10F01A
S1133F80FD006073607B50F00900607303E0607BA8
S1133F9010F0F4006073EDE62868012804D1E0789D
S1133FA010F0FB00E07003E0E07850F00400E070F3
S1133FB0E0E620794006FCD5DCE6A07C0006FCD5D2
S1133FC020794006FCD5D5E6E0798DF8000002E0C2
S1133FD0E0798DF8000020798006F9D4607C50F0F7
S1133FE040006074C6E696F84C00C00702D5012074
S1133FF0286001E003202860BCE62868012814D169
S113400096F84C00C0070FD4A07A10F0DF00A0721D
S1134010A07810F0EF00A070A07910F0BF00A0719C
S1134020F06C50F00100F064A4E6286803281CD169
S113403096F84C00C007F7D5A078C00602D4A07843
S1134040800701D5162096E6A07A10F0DF00A07252
S1134050A07850F01000A070A07950F04000A0713A
S1134060F06C40084000F064DEE70C2083E6296829
S113407001290AD1A17B51F00401A1730121FDF7AB
S11340802DF900280CD0162075E6A17B11F0FB0158
S1134090A1730021FDF722F9002801D016206AE659
S11340A068E6296801290AD1A17B51F00401A173B2
S11340B00121FDF716F900280CD016205BE6A17B40
S11340C011F0FB01A1730021FDF70BF9002801D0C9
S11340D0162050E64EE640F609204CE68069C26A96
S11340E013791B06FCD5D171816D491C8165D0788B
S11340F050F08000D070704780B5C26C002A02D1A5
S1134100026C002A02D15FF0FF302CE0826B52680F
S1134110002A0CD100210164C16B0989002903D054
S11341200121C06B03F068FD5FF0FF301BE0826B80
S11341305268002A15D0816B4968491E826B516010
S1134140816B89684A1C836B9A60826B8918097C2D
S1134150826B9268836B1B689A4202D10022806B47
S11341608260C9B2080002BD38B58569EC6A21795C
S11341702A6D521C2A650A0702D5AA6E521CAA6629
S1134180CA0702D52A6E521C2A664A0702D52A6F2C
S1134190521C2A678A0702D56A6E521C6A660A2272
S11341A011420CD0E079A07CC00707D5607C50F0A8
S11341B040006074A07C50F00100A07411E0090676
S11341C00FD5FFF799FF00900098002802D40098BB
S11341D0E07103E0E07810F07F00E070A86D401C0F
S11341E0A86531BDC17851F0AC01C170C17A51F0FC
S11341F02001C172C17A11F07F01C1727047C17888
S113420011F05301C17070472DE9F04104000F0013
S1134210904600252068466AB06A002806D0B06A35
S1134220401CB062F06AA06028003AE0002003F06D
S113423035FC7063002003F031FCF063306A103009
S1134240FDF752FFB06340F2FB31B06BFDF7A5FF01
S1134250306AB16B08600020B16B48600020B16B1C
S113426088600020B16BC860C6F82C80C4F8088050
S113427039003000326890470500002D03D1B06941
S1134280716888470500002D08D0B06BFDF792FED9
S1134290706B03F040FCF06B03F03DFC0120B06256
S11342A02800BDE8F08170B506000024FEF72BFE5F
S11342B033685D6A002203213000DB699847A86AED
S11342C0401EA862A86A002812D1A868002804D059
S11342D0A9696869AA6890470400A86BFDF76AFE9B
S11342E00020A863686B03F016FCE86B03F013FC72
S11342F0FEF719FE200070BDF8B506000D0017008A
S1134300B46BFEF700FEF80607D5606821688842A2
S113431011D3FEF708FE002033E0F06C002806D02D
S1134320F06B03F033FC02E0F06B03F02FFC6068E9
S113433021688842F8D2F06C002805D1306C00283E
S113434015D0706C002812D160682168884215D29B
S1134350E068411CE16000190574E0682168884246
S113436001D10020E0606068401C606006E001202C
S113437030642900C9B23000F2689047FEF7D3FDDB
S11343800120F2BD2DE9F44F86B00C00002102910A
S11343905FF000085FF0000A002600225FF00008CA
S11343A00068476ABD69D7F824A0D5F88C60FEF789
S11343B0AAFD02AA15F58471D5F8A000FFF7ECFA5E
S11343C00298BAEB000840460021D5E94823821838
S11343D04B41D5E94A01121A8B410698C1178B4209
S11343E016DC01DB824213D20698C5F81801FEF7E9
S11343F09AFD786B03F0CAFBFEF785FD02AA15F55A
S11344008471D5F8A000FFF7C7FA0298BAEB000848
S11344105FF0000B5FF00009D5E9480118EB0002DA
S113442059EB0103D5E94A01121A8B41504659460A
S1134430994215DC01DB904212D2DFF8B00303F09D
S113444013FC5FF00009D5E9480118EB000259EBB1
S113445001030698C117101A73EB0101C5E94A015B
S11344605FF00009D5E9480118EB000059EB0101A0
S1134470CDE90401D0465FF00009DDE90401CDE98E
S11344800001DDE9040142464B46FDF795F8A8FB1F
S1134490002308FB013309FB0033DDE90001801A26
S11344A099410200D5E94A01CDE90401D0465FF003
S11344B00009DDE90401CDE90001DDE9040142461A
S11344C04B46FDF779F8A8FB002308FB013309FBF1
S11344D00033DDE90001B0EB020871EB0309069833
S11344E010EB0800824514D2BAEB080218EB06015F
S11344F0200003F097FA069810EB0800B0EB0A02CC
S113450031001AEB0400B0EB0804200003F08AFA2F
S113451005E0069A18EB0601200003F083FAD5E9BA
S11345204A230698C11710185941C5E94A01FEF7F4
S1134530FAFC069807B0BDE8F08F2DE9F0410C00B5
S11345401500A84601684E6A876802E0641CB8F149
S11345500108B8F1000F08D03A0021783000FFF7C5
S1134560CBFE0028F2D1B5EB08052800BDE8F081A8
S113457038B500250068446A03290CD1FEF7C3FC52
S113458002E0E06B03F002FBA06B40680028F8D166
S1134590FEF7C9FC06E02069002803D0A06923695E
S11345A098470500280032BD2DE9F04184B004008D
S11345B00E00170098466820FDF705FE0500002D43
S11345C001D104201EE04FF47E712800FDF7E5FDC3
S11345D02E606F60C5F808800A98E8600B9828611F
S11345E00C9868610D98E86128620E9868620295DB
S11345F07F4801907F4800907F4B804A804920008B
S113460003F046FB04B0BDE8F08100B585B0049327
S1134610039202917B4901917B4900910FF2F513BA
S11346200FF259220FF26101FFF7BEFF05B000BD82
S113463038B50400A569FEF766FC6A4615F5847171
S1134640D5F8A000FFF7A8F9606A0099401A616BD9
S11346500989002915D00021D5E94823801859413A
S1134660D5E94A23821A71EB0303D5F81801002116
S11346708B4206DB01DC824203D30121606B03F031
S1134680BBFAFEF750FC31BDF8B5050000276E6992
S11346900A0015F118013000FFF742FA0700002F55
S11346A001D0380022E0AC69012084F89B0044204A
S11346B0FDF789FDC4F88400D4F88400002816D1DD
S11346C00427D4F88400002803D1D4F88400FDF72B
S11346D071FCD4F8A000FFF73BF9D4F88C00002853
S11346E003D0D4F88C00FDF765FC3800F2BDD4F893
S11346F084002830C4F88800012114F58670FEF780
S11347004DFF0022D4F80C11D4F8840003F0CEFA43
S113471000953E4B0022D4F88810D4F8840003F0AE
S1134720EFFAB06AFDF74FFDC4F88C00D4F88C00A2
S1134730C4F89400D4F88C00002801D10427CCE7F5
S113474096F8210084F875007068C0B203F05BF934
S1134750E0677068C0B203F047F9C4F88000002035
S1134760C4F8080194F8751014F1A000FFF7B2F82A
S11347700700002FADD12A000FF27911D4F8A00060
S1134780FFF764F9070001220121D4F8A000FFF724
S1134790F1F8E16FD4F8A000FFF722F9002F98D1C7
S11347A03069FEF7E2FBA0643069FEF7DCFBE063EE
S11347B02A0017493069FEF706FCA0630122B1699B
S11347C0306903F019FB2A000FF2F101D4F88000DC
S11347D0FEF7F9FB60630122F169D4F8800003F06D
S11347E00BFB280000F092F800207FE7843B0400D4
S11347F0714500003B45000085430000A7420000CE
S113480009420000D93C0000DD40000031460000B0
S11348106941000038B504000D00002D01D10C20C1
S11348202BE0D5F88400002807D0D5F8840003F0E5
S1134830C4FAD5F88400FDF7BDFBD5F8A000FFF756
S1134840F3F8D5F8A000FFF783F829002000FFF75C
S1134850E1F9D5F88C00002803D0D5F88C00FDF7D9
S1134860A9FB6A6C696BD5F88000FEF7ACFBAA6CF7
S1134870A96B2069FEF7A7FB002032BD70B50400C8
S11348801425E66A04216068C0B2FCF769FBE806F7
S113489003D53000FFF7A6FC02E03000FFF7AFFCC1
S11348A0280704D508216068C0B2FCF759FBD4F886
S11348B0A000FFF7A7F8002070BD00008069C16A5E
S11348C0026D521C026509790A0702D5826E521CD8
S11348D08266CA0702D5026E521C02664A0702D5D6
S11348E0026F521C0267890702D5416E491C41665A
S11348F07047000030B48269D2E94845406A00211B
S113490020186941C2E9480130BC704710B58EB027
S11349108469E16A406A0090D4F88C300122C91D90
S113492001A8FEF731FF14F5847201A9D4F8A000A0
S1134930FFF744F8D4F8A000FFF764F80EB010BDF8
S1134940F0B4002600225FF0FF35002317E0DFF803
S1134950287457F82370DFF824C45CF824C00CFBD7
S113496007F74F433F1A002F00D57F42AF4202D2D0
S11349703D001E002200641C402CE8D35B1C032B6A
S113498001D20024F8E7B001C0B212F03F0108439D
S1134990F0BC7047E0B502910FF2151101910FF2CE
S11349A0794100910FF2E9330FF2D1020FF20901BC
S11349B003F074FA0EBD0000F8B504000F0020786F
S11349C003F01AFB0500002D02D1DFF8B40353E015
S11349D05C20FDF7F8FB0600002E01D104204BE01B
S11349E040F20B413000FDF7D8FB2078FCF7E0FBE8
S11349F03E6030002100142203F024F87561002089
S1134A00B0610020F06100203062607886F82400F4
S1134A10002086F82500002086F82600002086F86D
S1134A2027000020B0620020F062002030630020E4
S1134A3070630020B0630020F06300203064002025
S1134A4070640020B0640020F06400203065002011
S1134A5070650020B0650020A8700020E870A07880
S1134A60400028706168C748FFF76AFF6870A8783B
S1134A7050F08000A8700020F2BD000010B50400C2
S1134A80002901D0002C01D1BF480FE04869C1784A
S1134A90890601D5BD4809E000218170FF21C1705C
S1134AA0A069FDF787FA0020A061002010BD000076
S1134AB030B587B000244569C91E36D040F2FE33B4
S1134AC0C91A00F0DF80491E00F0EB80491E00F097
S1134AD0BD80491E00F0C480491E00F0CB80491EF1
S1134AE000F00581491E00F00A81491E00F0EF80A4
S1134AF0491E00F0F480491E00F09780491E44D0FE
S1134B00491E5ED0491E00F00281491E00F0078153
S1134B10491E00F01481491E00F08E80491E00F0E9
S1134B209080491E00F0188123E190F8271011F0BD
S1134B30030102290CD1C16B036C9942FBD1E978C2
S1134B408DF80010C9B211F0A001202903D1F6E7B5
S1134B50E9788DF80010016CC16390F8271089077B
S1134B600BD59DF80010890607D4002180F8271082
S1134B7000218162072180F82510002A04D09DF8C5
S1134B80000010F001001060F3E0804CA978890661
S1134B9016D590F82510022903D1C16B026C9142FD
S1134BA00AD090F82510032902D1816A002903D084
S1134BB090F82510072903D1012180F8251000243D
S1134BC0D7E0A97811F0E701A970E97851F0120152
S1134BD0E97000218162002180F82710002180F80B
S1134BE02510016B4163A878800603D428798DF8D9
S1134BF0000003E0A87810F0DF00A870E8788DF8D2
S1134C0000000DE09DF80000800706D5E87850F01C
S1134C100200E87028798DF80000E8788DF800002B
S1134C209DF800008006EDD4A3E0002A01D1564C83
S1134C3001E0116881629CE0A87810F07F00A87000
S1134C4097E0A87850F08000A87092E090F82510C2
S1134C50002901D04D4C02E0002180F8241088E0A6
S1134C6090F82510002901D0484C02E0012180F879
S1134C7024107EE0002A01D1434C02E090F8240085
S1134C80106076E0002A01D13F4C09E0E878800604
S1134C9001D53E4C04E011683A48FFF751FE6870B4
S1134CA067E0002A01D1384C10E03348697889095B
S1134CB050F8211031486B7813F03F0350F823006B
S1134CC0304B00FB01F0B3FBF0F0106051E0002A20
S1134CD001D12D4C02E0116880F8261049E0002A29
S1134CE001D1294C02E090F82600106041E0002A2E
S1134CF001D1254C02E010684000287039E0002AF8
S1134D0001D1214C02E028784008106031E0002AEB
S1134D1001D11D4C02E090F82500106029E0002A22
S1134D2001D1194C0AE0443090EC060B01A880EC48
S1134D30060B01A890EC060B82EC060B19E000218F
S1134D404164002181640021C164002101650021C6
S1134D504165002181650CE0002A01D10A4C07E07D
S1134D60E878800602D50120106001E00020106080
S1134D70FFE7200007B030BD783A0400843A04000D
S1134D8002090100008793030309010001090100DE
S1134D9038B58469606994F8273053F0010384F8C6
S1134DA0273094F82530DBB2002B02D0DBB2012B84
S1134DB02CD1032584F8255094F82450002D25D1B6
S1134DC0857855F010058570C57855F00205C570D5
S1134DD0DBB2012B04D1837853F00403837003E026
S1134DE0837853F02003837094F8273053F0020340
S1134DF084F8273094F826305B0053F001030371E4
S1134E00E36C5B1CE364C3789B07FCD513000A00C6
S1134E10210000F043F832BD38B58469606994F824
S1134E20273013F0FE0384F8273094F82530DBB2E2
S1134E30002B02D0DBB2012B2AD1022584F82550A5
S1134E4094F82450002D23D1857855F010058570F1
S1134E50C57855F00205C570DBB2012B04D1837807
S1134E6053F00403837003E0837853F020038370CA
S1134E7094F8273053F0020384F8273094F826304E
S1134E805B000371E36C5B1CE364C3789B07FCD594
S1134E9013000A00210000F001F832BD70B40400D0
S1134EA0002001E00300401C8342C0F07081E578DB
S1134EB0A678B60611D4984200F06A8191F827606A
S1134EC0B6070AD5AE0608D4002281F827200022AE
S1134ED08A62072281F825205AE1AE07E7D591F8C6
S1134EE0276056F0020681F82760A678B60640F1DE
S1134EF09280A678F6064FD5ED070BD5E37853F0EC
S1134F000203E370072381F825308B6D5B1C8B65EE
S1134F100300C8E791F82550022D12D191F82750CB
S1134F20ED070CD49842BED2E57855F00205E57041
S1134F3015782571521CCD6C6D1CCD64B3E703004C
S1134F40B1E791F82550032D24D191F82750ED07AE
S1134F501ED5A57815F0EF05A5708D6A012D04D135
S1134F60A57855F00805A57003E0A57815F0F705B8
S1134F70A570E57855F00205E5708D6A002D04D121
S1134F80072381F8253003008DE72579401E8AE741
S1134F90030088E7030086E791F82550032D38D1F4
S1134FA091F82750ED0732D58D6A002D2FD0984205
S1134FB0BFF479AFE57855F00205E5708D6A6D1E92
S1134FC08D628D6A012D04D1A57855F00805A57070
S1134FD003E0A57815F0F705A5708D6A002D03D1BF
S1134FE0A57855F01005A57025791570521C8D6AA9
S1134FF0002D08D1A37813F0EF03A370072381F8E1
S11350002530431C18008D6C6D1C8D644BE7030028
S113501049E7030047E7EE060AD5E37853F01003A7
S1135020E370062381F825300B6D5B1C0B650300D0
S11350306E0648D591F82460002E02D14E6D761C80
S11350404E656D071AD5052581F8255091F827502E
S1135050ED0711D49842BFF426AFA57855F010059A
S1135060A570E57855F00205E57015782571521C98
S1135070CD6C6D1CCD6416E7030014E7042581F89C
S1135080255091F82750ED071BD5002819D18D6ABA
S1135090002D16D0A57815F0EF05A570E57855F02C
S11350A00205E5708D6A012D04D1A57855F0080537
S11350B0A57003E0A57815F0F705A5702579401EC5
S11350C0F1E60300EFE6EE063FF5ECAEA678F60651
S11350D029D5ED070BD5E37853F00203E3700723DA
S11350E081F825308B6D5B1C8B650300DBE691F842
S11350F02550022D03D091F82550052D11D191F89A
S11351002750ED070DD49842BFF4CDAEE57855F0A5
S11351100205E57015782571521CCD6C6D1CCD64AB
S1135120C1E60300BFE691F82550032D03D091F8A2
S11351302550042D29D191F82750ED0725D58D6AE6
S1135140002D22D09842BFF4AEAEE57855F00205AA
S1135150E5708D6A6D1E8D628D6A012D04D1A5786E
S113516055F00805A57003E0A57815F0F705A570BE
S11351708D6A002D02D1072581F8255025791570F7
S1135180521C8D6C6D1C8D648DE603008BE618003B
S113519070BC7047F0B585B004000D000026286887
S11351A08068002803D02868C068002802D140F62F
S11351B00B2057E04420FDF706F80700002F01D12B
S11351C004204FE04FF480613800FCF7E6FF286AC2
S11351D0F863686A386417F1240015F1080191EC4A
S11351E0060B80EC060B2868F861F8690068002853
S11351F006D017F120016868FA6912689047060022
S1135200002E04D03800FCF7D5FE30002AE001213E
S11352103800FDF77CFC03970FF24D0002900FF26B
S1135220452001900FF2312000900FF21D230FF260
S113523001220FF29111200002F0EEFE0600002E72
S11352400FD0F8694068002803D0386AF9694968C2
S113525088473800FDF7B1FC3800FCF7ABFE30009E
S113526000E0002005B0F0BD10B5010000204C6A3C
S1135270E1694968002903D0206AE16949688847DF
S1135280002806D12000FDF798FC2000FCF792FED0
S1135290002010BD2DE9F0410C0015001F00002F67
S11352A003D0002C04D1002D02D15FF0FF3058E070
S11352B046680068D0F82480306800280DD1404644
S11352C0FDF7D0FC002804D0FDF7D9F95FF0FF30DA
S11352D047E0012030600120F061F06900280FD020
S11352E0311DD8F82000D8F81C2092689047002877
S11352F004D0FDF7C4F95FF0FF3032E00020F06124
S1135300D8F83C0000280CD0D8F840103069D8F800
S11353103C209047002804D0FDF7B1F95FF0FF303E
S11353201FE0002C03D1306AC00300D52C003B00E1
S11353302A002100D8F82000D8F81C70FF68B8476C
S113534001280EDBF168C91DC908B0FBF1F1002D7D
S113535002D0726A8A187262002C02D0B26A89186A
S1135360B162BDE8F08170B5002445680068466A02
S11353702868002821D0002917D1287D80070AD465
S1135380F0690069002806D0306AF1690969884724
S1135390002C00D10400F06B002806D0316C0020F2
S11353A0F26B9047002C00D104003000FDF721FC83
S11353B000212960002C00D104000120E8612000B4
S11353C070BD0000F8B507000E0014000025307809
S11353D0002804D03000461C00783A28F7D13078F1
S11353E000280CD000226946300002F08BFE050034
S11353F000980078002802D040F60B2017E02C20FB
S1135400FCF7E1FE002801D1042010E0786039683F
S1135410496A021D243191EC060B82EC060B012132
S1135420C1613178002900D0056104620020F2BD19
S113543010B5040000212000FFF795FF6068FCF719
S1135440B9FD002010BD000080B513000A00002142
S1135450FFF720FF02BD000080B513000022FFF714
S113546019FF02BD2DE9F8430E00150000245FF07A
S1135470000947680168D1F824803100C91E50D062
S1135480891F47D040F6F852891A74D0491E00F09B
S11354908D80491E00F09A80491E00F09E80491EAE
S11354A000F02081491E00F02481491E00F0BE80D6
S11354B0491E00F0C880491E00F0E580491E00F036
S11354C0F080491E00F05C81491E00F05A81491E9B
S11354D043D0491E48D0491E00F03F81491E00F0C8
S11354E04781491E00F09280491E00F09680491EB3
S11354F07CD0491E00F08180491E00F01381491EB2
S11355001CD0491E15D0491E00F0FC80491E00F035
S1135510008137E110202860002068604820A860DE
S113552056E1396A490C11F00101FFF71CFF040030
S11355304EE10021FFF717FF040049E1002D01D1DE
S1135540A54C09E02B68AA686968FFF7A3FE2968DF
S1135550814201D05FF0FF343AE1002D01D19E4C2D
S113556001E0386A286033E1002D01D19A4C01E052
S1135570286838622CE1002D01D1974C15E0786839
S11355802860D8F81C004069002809D02B0032009C
S1135590391DD8F82000D8F81C406469A0470400DD
S11355A040F60920844200D1002411E1002D02D0EC
S11355B02868002805D1D8F8240078600120F86113
S11355C003E0286878600120F86101E1002D01D131
S11355D0814C01E0B8682860FAE0002D01D17E4CCE
S11355E003E02868B8600120F861F1E0002D01D1E2
S11355F0794C01E038692860EAE0002D01D1764C4D
S113560003E0286838610120F861E1E0002D01D150
S1135610714C01E0F8682860DAE0002D01D16E4C8D
S113562003E02868F8600120F861D1E0002D01D181
S1135630694C07E0387D800702D50120286001E02D
S113564000202860C4E0002D01D1634C1AE02868D2
S113565001280AD1786930F002007861786950F045
S1135660020078610120F8610CE02868002808D164
S1135670786930F002007861786978610120F86116
S113568000E0564CA4E0002D01D1534C08E0387DD5
S1135690C00703D54FF40040286001E001202860D2
S11356A096E0002D01D14C4C1BE02868B0F5004F6A
S11356B00AD17869400840007861786950F00100A7
S11356C078610120F8610CE02868012808D1786924
S11356D0400840007861786978610120F86100E051
S11356E03F4C75E0002D01D13B4C01E0B8692860C6
S11356F06EE0002D01D1384C03E02868B861012028
S1135700F86165E0002D01D1334C01E0786928602F
S11357105EE0002D01D1304C03E02868786101205F
S1135720F86155E0002D01D12B4C15E038680028B4
S113573005D14046FDF796FA0400002C48D12868AC
S1135740C8F83C006868C8F840003868002803D1ED
S11357504046FDF74EFA04003AE0002D01D11E4CFC
S113576005E017F12400D0E90023C5E900232FE068
S11357700821002217F124052800FCF795F927E0F9
S113578026E025E0D8F81C00406900281ED03868BF
S1135790002805D14046FDF765FA0400002C17D116
S11357A02B003200391DD8F82000D8F81C506D6940
S11357B0A84781463868002803D14046FDF719FA06
S11357C00400B9F1000F03D04C4601E040F609246F
S11357D02000BDE8F2830000070701000207010072
S11357E00407010010B584B0040002F050FD002845
S11357F010D100200290994801900FF2712000907E
S11358000FF265230FF2E9120FF21101200002F0EA
S11358103FFA01E05FF0FF3004B010BD2DE9F04124
S113582005000E001700B8465C20FCF7CCFC040011
S1135830002C02D15FF0FF30D7E04FF47D712000DF
S1135840FCF7ABFC6C60FDF75EFBB8F1000F7CD19C
S11358503A003100280002F079FD002800F0A5800C
S1135860FDF761FB2000FCF7A5FB5FF0FF30BCE017
S11358707B4A52F82120024240F08F800022D8F85F
S1135880003013F07063B3F1807F15D0B3F1007F63
S113589009D0B3F1407F18D0B3F1806F26D0B3F1B3
S11358A0006F34D044E014EB81031B6A034314EB10
S11358B0810CCCF820303DE014EB81035B6B034397
S11358C014EB810CCCF8343034E014EB81031B6A04
S11358D0034314EB810CCCF8203014EB81035B6B95
S11358E0034314EB810CCCF8343023E014EB810334
S11358F05B6B034314EB810CCCF8343014EB810361
S11359009B6C034314EB810CCCF8483012E014EB8D
S113591081031B6A034314EB810CCCF8203014EB95
S113592081039B6C034314EB810CCCF8483001E0F9
S11359305FF0FF32002A30D114EB8102D2681043A9
S113594014EB8101C86018F10408D8F8000000289D
S11359503FF47EAFD8F8000000281ED5D8F8000028
S1135960C0F35211012098F8002012F01F02904059
S1135970052912D23B4A52F8212002420DD1D8F80F
S1135980002012F0706F7FF473AF14EB8102D268C1
S1135990104314EB8101C860D5E7FDF7C4FA200079
S11359A0FCF708FB5FF0FF301FE0002018E02D49F2
S11359B051F8201014EB8002D2681143294A42F8AE
S11359C02010274951F8201014EB8002126A14EBBE
S11359D080035B6B1A431143214A42F82010401C98
S11359E00528E4D3FDF79FFA0020BDE8F08100000C
S11359F038B505006C68FDF786FA00224FF4427151
S1135A00280003F047F8002240F20631280003F092
S1135A1041F8002018E0134951F8201014EB8002DB
S1135A20D26891430F4A42F820100D4951F82010D2
S1135A3014EB8002126A14EB80035B6B1A439143EC
S1135A40074A42F82010401C0528E4D3FDF76BFAFE
S1135A502000FCF7AFFA002032BD00008D84000066
S1135A607023FF1F5C23FF1F002070470020704736
S1135A70FEB504000D002420FCF736FB0600002EC2
S1135A8002D1DFF858042BE0242100223000FCF777
S1135A900BF82A003100200003F0A6F90700002FBC
S1135AA018D12A003100200003F0EFFD0700002F79
S1135AB010D102960FF2A54001900FF29D40009084
S1135AC00FF235430FF24D320FF21901200002F0AC
S1135AD0DFF80700002F02D03000FCF76BFA380023
S1135AE0FEBD00002DE9F84F040089469246206867
S1135AF0456A2068806801E019F101090100481C29
S1135B0009780029F8D14846007800284FD1BAF125
S1135B10000F02D1DFF8C80347E12868002839D113
S1135B201420FCF701FA28602868002802D1DFF865
S1135B30AC033AE10820FCF7F7F9686068680028CC
S1135B4005D16868FCF736FADFF890032DE1DAF83E
S1135B5000002968086000206968486029682000FE
S1135B6003F045F98346BBF1000F15D169682000A5
S1135B7003F08DFD8346BBF1000F09D02868FCF7C4
S1135B8019FA6868FCF716FA00202860002068609B
S1135B9058460AE1D34808E12868FCF70BFA68681C
S1135BA0FCF708FA0020286000206860F0E700276E
S1135BB015F1080615F11008BAF1000F01D1C84813
S1135BC0F3E02868002801D1C748EEE0DAF80400C1
S1135BD0002801D1C548E8E0002700E07F1C022F1F
S1135BE009D2494615EB8700806904F00BFA0028B6
S1135BF0F4D1BC48D9E0002700E07F1C022F04D276
S1135C0015EB870080690028F7D1022F01D1B8482D
S1135C10CBE01C20FCF788F900900098002802D102
S1135C20DFF8B8B2C0E056F8270000283DD12020A4
S1135C30FCF77AF946F8270056F82700002802D125
S1135C40DFF898B2ADE02C20FCF76EF948F8270095
S1135C5058F82700002802D1DFF880B29AE056F8FD
S1135C6027000099086058F82700009948600098B8
S1135C706060DAF81400401C8000FCF755F956F80F
S1135C802710C86056F82700C068DAF8141010EB23
S1135C908100001D56F82710086156F82700C068D7
S1135CA0002805D1DFF834B26DE05FF0FF307CE00E
S1135CB056F82700C06856F82710486156F82700A0
S1135CC0C06856F82710886156F827000760BAF8AC
S1135CD0020056F827108880BAF8000056F82710FA
S1135CE0C880DAF8180058F82710C861DAF80800F4
S1135CF058F827108860DAF80C0058F82710C860A4
S1135D0058F827000760BAF8020058F8271088806E
S1135D10DAF80400401E58F82710886158F8270064
S1135D20806958F827104861DAF81C0058F82710E1
S1135D300862DAF82000002804D1012058F827105E
S1135D40486204E0DAF8200058F82710486256F850
S1135D502710200003F0B3F98346BBF1000F0DD1E7
S1135D6058F82710200003F021FE8346BBF1000FF2
S1135D701DD056F82710200003F025FA56F8270006
S1135D80C068FCF717F958F82700FCF713F900204E
S1135D9048F8270056F82700FCF70CF9002046F8CD
S1135DA027000098FCF706F95846BDE8F28F4846EC
S1135DB004F04AF9401CFCF7B7F815EB8701886139
S1135DC015EB87008069002805D158F827102000BA
S1135DD003F097FECDE7002006E015EB8701896903
S1135DE010F809204254401C10F809100029F4D17D
S1135DF015EB87018969002242549AF80200800752
S1135E0006D4002241F20111200000F0A7F8CCE7EB
S1135E100020CAE72DE9F84305002868446A6F6842
S1135E2014F1080614F11008002F24D15FF00009C2
S1135E3001E019F10109B9F1020F05DA56F8290058
S1135E400028F6D02B4847E06168280003F0B4FC32
S1135E50002841D12168280003F026F900283BD10D
S1135E606068FCF7A7F8002060602068FCF7A2F8DF
S1135E70002020602FE03868D0F800900022796874
S1135E80280003F0DCFF7968280003F03AFE0028BC
S1135E9022D13968280003F096F900281CD114EBAC
S1135EA089008069FCF786F8002014EB8901886179
S1135EB03868C068FCF77EF83868FCF77BF87868C7
S1135EC0FCF778F83800FCF775F8002046F829004C
S1135ED0002048F829000020BDE8F283010E0100EB
S1135EE0030E0100040E0100050E0100060E010060
S1135EF0070E0100080E010070B40B004068006832
S1135F004469002C01D1002023E084694569641BA5
S1135F10A410002C04D50569C668AD1B14EBA504B8
S1135F209508A54212D2940810E0426912681A60DA
S1135F301B1D002245692A604269121D42614269A3
S1135F400569AA4201D3C2684261641E002CECD1E7
S1135F50581A70BC7047000000207047F8B505005F
S1135F600E00140068683100093942D041F2F80289
S1135F70891A0ED0491E12D0491E16D0491E1AD0B5
S1135F80491E1ED0491E22D0491E26D0491E2AD0A1
S1135F9037E000224168280003F029FE4AE022008D
S1135FA00021280003F023FE44E000224168280079
S1135FB003F045FF3EE022000021280003F03FFFEC
S1135FC038E000224168280003F083FE32E022001A
S1135FD00021280003F07DFE2CE000224168280007
S1135FE003F0D4FE26E022000021280003F0CEFEB8
S1135FF020E015202060002060600820A0600020C0
S113600018E022003100280002F064FD0700002F90
S113601003D040F6092087420BD12200310028002A
S113602003F044FA40F60921884201D1380001E026
S113603000E03800F2BD00007FB504000D006420CC
S1136040FCF7C1F80600002E01D104203DE0E86809
S113605000683060E86840687060E8688068B06034
S1136060E868C068F060E86800693061E868406921
