S019000068656C6C6F5F7477726B3232663132306D2E7372656306
S1130000F0FE002051040000A1070100A107010037
S1130010A1070100A1070100A107010000000000E1
S11300200000000000000000000000006F06010056
S1130030A107010000000000E5060100A10701007E
S1130040A1070100A1070100A1070100A107010008
S1130050A1070100A1070100A1070100A1070100F8
S1130060A1070100A1070100A1070100A1070100E8
S1130070A1070100A1070100A1070100A1070100D8
S1130400FFFFFFFFFFFFFFFFFFFFFFFFFEFFFFFFF9
S107041000000000E4
S11304204DF8881CF1EE101A02B42DED200A5DF887
S1130430041C70474DF8041CBDEC200A02BCE1EE1C
S1130440101A5DF8881C70470000000000000000CE
S113045013481449144A4FF0080333B140F8042BED
S113046041F8042BA3F10103F7E7EFF3088080F3CD
S11304700988EFF3148040F0020080F31488BFF37E
S11304806F8FDFF82800016841F4700101600848AB
S11304904FF00001016000F012B8000000000000FD
S11304A080E100E080E200E0FFFFFFFF88ED00E074
S11304B034EF00E080B500F08BF8012002BD80B578
S11304C000F0A0F801BD50F8041B61B150F8042BF2
S11304D0D30744BFA9F101039A180023091F42F866
S11304E0043BFAD1EFE770473F4911F58252126895
S11304F052F0010211F582531A6041F2040252587B
S113050052F4407241F204035A50384A10004FF436
S1130510A06282624FF4A062C2624FF4A0620264DD
S11305204FF4A06242644FF4A06202654FF4A062EB
S113053042654FF4A06282654FF4A062C2652C4A02
S113054010004FF4A06202604FF4A06282604FF486
S1130550A062C2604FF4A06202614FF4A0628261A3
S11305604FF4A062C2614FF4A06242624FF4A062F1
S113057082624FF4A062C2624FF4A06202634FF43D
S1130580A06242634FF4A06282634FF4A062C2632C
S1130590184A10004FF4A06202604FF4A062426057
S11305A04FF4A06282604FF4A062C2604FF4A06274
S11305B002614FF4A06242614FF4A062826170470D
S11305C00D4908604FF416628A600C4A4A6070470D
S11305D080B500F011FD00F0BAFEFFF785FF084872
S11305E0FFF7EEFF01BD00000070044000A00440CE
S11305F000B0044000C0044000C0004001000700F7
S113060000000060C046C04600F01AFF00F02AFF58
S11306107047C0B2002824D1A021DFF85C291170F2
S1130620DFF85819097811F0FC01DFF8502911702E
S11306301821DFF84C2911702421DFF848291170A2
S11306400321DFF8442911705021DFF8402911708B
S1130650DFF83C190978C9B211F00C010C29F7D163
S1130660FFE77047C0B2002802D001282AD053E027
S1130670A021DFF804291170DFF80019097811F0BE
S1130680FC01DFF8F82811709821DFF8F4281170C4
S11306902421DFF8F02811700321DFF8EC28117011
S11306A05021DFF8E8281170DFF8E4180978C9B29E
S11306B011F00C010829F7D1DFF8D418097849069C
S11306C0FAD529E08021DFF8B0281170DFF8AC18E2
S11306D0097811F0FC01DFF8A42811709A21DFF8E1
S11306E0A02811702521DFF89C2811700321DFF860
S11306F0982811705021DFF894281170DFF89018B1
S11307000978C9B211F00C010829F7D1DFF8801873
S113071009784906FAD5FFE77047C0B2002802D02D
S1130720012837D06DE02421DFF858281170A0216A
S1130730DFF844281170DFF84418097811F0FC013F
S1130740DFF8382811709821DFF834281170DFF8A9
S11307504418097811F01F01DFF8382811700321BB
S1130760DFF8242811701021DFF820281170DFF839
S1130770201809788907FAD5DFF814180978C9060A
S1130780FAD4DFF80C180978C9B211F00C01082961
S1130790F7D136E02521DFF8EC2711708021DFF84E
S11307A0D8271170DFF8D417097811F0FC01DFF8AD
S11307B0CC2711709A21DFF8C8271170DFF8D417FD
S11307C0097811F01F01DFF8CC2711700321DFF83D
S11307D0B82711701021DFF8B4271170DFF8B017B3
S11307E009788907FAD5DFF8A8170978C906FAD471
S11307F0DFF89C170978C9B211F00C010829F7D168
S1130800FFE77047C0B2012816D14621DFF87027F0
S113081011702721DFF86C2711708021DFF8582729
S11308201170DFF86C170978C906FAD5DFF860177C
S11308300978C907FAD5FFE77047C0B2002802D08B
S1130840012832D063E04421DFF8342711702421D9
S1130850DFF830271170DFF83C17097811F01F0119
S1130860DFF830271170A021DFF80C271170DFF8B2
S11308700C17097811F0FC01DFF80027117003212F
S1130880DFF8042711701021DFF800271170DFF85A
S113089000170978C906FAD5DFF8F4160978C9B241
S11308A011F00C010429F7D131E04621DFF8D026FC
S11308B011702521DFF8CC261170DFF8D8160978DD
S11308C011F01F01DFF8CC2611708021DFF8A82673
S11308D01170DFF8A816097811F0FC01DFF89C26E6
S11308E011700321DFF8A02611701021DFF89C2677
S11308F01170DFF89C160978C906FAD5DFF890164E
S11309000978C9B211F00C010429F7D1FFE7704747
S113091070B504000025E4B2002C02D0012C03D0F1
S113092005E00420050002E001200500FFE700F0D7
S113093031F80600DFF86006F6B2052101FB060077
S1130940EDB22E5CF6B2002E06D0022E0ED008D3E5
S1130950042E15D00FD318E02000C0B2FFF76DFFAE
S113096013E02000C0B2FFF74DFF0EE02000C0B23C
S1130970FFF7D3FE09E02000C0B2FFF773FE04E0E6
S11309802000C0B2FFF745FEFFE7EDB2F6B2B54274
S1130990D0D170BDDFF8E8050078C0B210F0C00017
S11309A0002804D0402804D080280BD013E0042071
S11309B012E0DFF8D0050078800701D400200BE0B6
S11309C0012009E0DFF8C4050078400601D40220C4
S11309D002E0032000E0002070470100C9B20429AE
S11309E001D3022050E0C9B20800002826D0032811
S11309F049D18020DFF880251070DFF8A005006859
S1130A0050F48030DFF8942510601A20DFF8702548
S1130A1010702420DFF86C2510700120DFF86825A1
S1130A2010704620DFF864251070DFF86405007844
S1130A30C0B210F00C000C28F7D124E08020DFF8BD
S1130A4038251070DFF85405006850F48030DFF862
S1130A504C2510601A20DFF8282510702420DFF8B8
S1130A60242510700320DFF8202510705020DFF8B3
S1130A701C251070DFF818050078C0B210F00C00C7
S1130A800C28F7D1FFE70020704710B50400E4B24A
S1130A90042C01D30220F3E0DFF8040500780328D6
S1130AA00BD1E4B2012C02D0E4B2022C01D11B2000
S1130AB0E6E02000C0B2FFF790FFE4B2032C0FD1B0
S1130AC0DFF8DC040078012804D0DFF8D4040078CF
S1130AD0022801D11B20D3E02000C0B2FFF77DFF24
S1130AE0E4B2002C06D0022C52D02AD3032C00F0FE
S1130AF0A580BDE0DFF8A8040078022807D15FF0E4
S1130B00A270DFF8A01408600020FFF701FF5FF077
S1130B109970DFF8901408600920DFF88C140860DD
S1130B20DFF87804006850F48030DFF8701408604F
S1130B30DFF87804006830F44020DFF870140860AF
S1130B4096E0DFF85C040078022807D15FF0A27019
S1130B50DFF8501408600020FFF7DAFEDFF85004D5
S1130B60DFF8401408600920DFF83C140860DFF85F
S1130B702C04006850F48030DFF820140860DFF89B
S1130B802C04006830F44020DFF8201408606FE083
S1130B905FF0A270DFF80C140860DFF8E803007857
S1130BA0C0070AD4DFF80C04007810F0F30050F00A
S1130BB00200DFF80014087023E0DFF8C8030078AF
S1130BC010F0FE00DFF8BC130870DFF8C4030078EF
S1130BD0C007FAD4DFF8DC03007810F0F30050F01B
S1130BE00200DFF8D0130870DFF89803007850F0A3
S1130BF00100DFF890130870DFF894030078C00751
S1130C00FAD50120FFF784FE5FF44030DFF8941337
S1130C1008600920DFF890130860DFF8800300689B
S1130C2050F48030DFF874130860DFF88003006844
S1130C3030F44020DFF87413086019E05FF0A2700C
S1130C40DFF8601308600920DFF85C130860DFF840
S1130C504C03006850F48030DFF840130860DFF87C
S1130C604C03006830F44020DFF840130860FFE7CD
S1130C702000C0B2FFF7CCFCDFF82403047000208E
S1130C8010BDDFF81C0300787047000010B40300A7
S1130C90DBB2012B35D0C0F08780032B66D057D34D
S1130CA0052B02D0C0F07F807EE08020DFF808436F
S1130CB02070DFF80803007850F06000BF4C20700B
S1130CC0BF480078C0B28028FAD1BE48006830F02E
S1130CD00600BC4C2060B2480078022810D0AC4812
S1130CE00078C0B210F00C000C2809D0A448007899
S1130CF010F03B00A24C2070A54800784006FBD5BC
S1130D0054E0AE48007810F09F00AC4C2070AC4822
S1130D100078C0B20128FAD1AA48006830F0060071
S1130D20A84C20609E480078022810D0984800788B
S1130D30C0B210F00C000C2809D09148007810F0D3
S1130D403B008F4C2070924800784006FBD52DE084
S1130D509C48006830F004009A4C20609948006870
S1130D6030F00200974C206030BF1FE095480068C7
S1130D7050F00400934C20609048007810F0F80084
S1130D808E4C20708D480078C0B2002801D101201B
S1130D9000E00020C0B28B48006850F00200894C8B
S1130DA0206030BF02E001E0812000E0002010BCA0
S1130DB070474CF22050844908804DF6281082492F
S1130DC008804FF4E970814908808148006850F038
S1130DD000507F4908607F480068C00511D47D48F1
S1130DE0006830F470507B4908607A48006850F419
S1130DF08070784908607748006830F4007075495D
S1130E0008607548674908607448006850F4D05019
S1130E107249086072480078000705D57048007868
S1130E2050F008006E4908705FF092705D490860E8
S1130E3009205D4908605948006850F480305749DA
S1130E4008605A48006830F44020584908606548F2
S1130E50006865490840634908606448006862495D
S1130E60084062490860242046490870A02042498D
S1130E7008704248007810F0FC004049087098203F
S1130E803F4908704348007810F01F00414908703A
S1130E9003203D49087010203C4908703C48007804
S1130EA08007FBD53A480078C006FBD43848007860
S1130EB0C0B210F00C000828F8D150203349087053
S1130EC033480078C0B210F00C000828F8D130483C
S1130ED000784006FBD518202949087003203049C2
S1130EE008702B480078C0B210F00C000C28F8D120
S1130EF0704710B50400002200212000C0B2FFF7A3
S1130F00C5FE10BD70B5040000252000C0B2FFF777
S1130F10BCFD0500ADB2002D02D0280080B20AE06D
S1130F20C8220021324800F00CFB0600002E01D03C
S1130F301B2000E0002070BD80B5FFF7A2FE02BDBB
S1130F4010B402000020D2B2042A12DAC9B20A296B
S1130F5009D2284BD2B2282404FB0233C9B253F875
S1130F602130180005E0C9B20A2902D14FF47A737E
S1130F70180010BC70470000005006400C400640AA
S1130F80004006400140064004400640054006403B
S1130F900640064003400640480E01000480044019
S1130FA04000FF1F44800440488004400070044017
S1130FB0000099990840064000E0074001E007401E
S1130FC003E0074010ED00E00E200540002005403E
S1130FD03C80044010D003400000330138800440BA
S1130FE002D0074048900440FFF8FFFE4C900440B4
S1130FF09000FF1F640E010080B5FFF7DAFE01BD0B
S113100030B40200DFF8E433D2B2002A03D0022A5B
S11310104DD026D371E0DFF8D8030400C80705D506
S11310204FF45070E0634FF45070A063880703D509
S11310300020E0630020A063480707D541F2340094
S1131040C05850F4806041F23405E850080707D5D1
S113105041F23400C05830F4806041F23405E85065
S11310604EE0DFF890030400C80705D54FF4507034
S113107060604FF450702060880703D50020E06062
S113108000202061480707D541F23400C05850F4CD
S1131090006041F23405E850080707D541F23400F6
S11310A0C05830F4006041F23405E85028E0DFF81D
S11310B044030400C80705D54FF4507060644FF42E
S11310C050702064880703D50020606400202064E9
S11310D0480707D541F23400C05850F4805041F21B
S11310E03405E850080707D541F23400C05830F4FD
S11310F0805041F23405E85002E05FF0FF3000E038
S1131100002030BC70470100DFF8E022002902D043
S1131110012909D011E041F23C00805850F00060F0
S113112041F23C0398500BE041F23C00805850F0EF
S1131130800041F23C03985002E05FF0FF3000E091
S11311400020704730B4010011F01F04080505D5D4
S1131150E4B2042C02DB5FF0FF3082E0E4B21A2C2C
S11311604BDA89B211F4704080B2B0F5805F03D0DD
S1131170B0F5005F1FD03DE089B211F4C060B0F556
S1131180806F03D04FF4C060014204D19A48E4B2A6
S1131190205C02000EE0E4B2042C02DBE4B2082C72
S11311A002DB0020020005E09448E4B2201810F8A5
S11311B0040C020023E089B211F4C060B0F5806F22
S11311C003D04FF4C060014204D18D48E4B2205CE6
S11311D002000EE0E4B2042C02DBE4B2082C02DBD1
S11311E00020020005E08748E4B2201810F8040C3F
S11311F0020004E05FF0FF3033E001200200D2B2CD
S1131200002A02D15FF0FF302BE0D2B2012A01D1D3
S1131210002026E0D2B25009012807D014D30328B5
S11312200AD006D305280DD009D30DE07048030079
S11312300AE07548030007E07448030004E07448BA
S1131240030001E06B480300D2B212F01F0053F810
S1131250200030F4E060D2B212F01F0543F82500FC
S1131260002030BC70476B48006850F0005069495A
S113127008600020704710B401005C4A002902D0C5
S1131280012917D02DE0624803004FF4A0701860C4
S11312904FF4107058604FF4107098604FF4107051
S11312A0D86041F23C00805850F4805041F23C0434
S11312B0A05019E0544803004FF4107018644FF420
S11312C01070D8624FF4107058644FF41070986224
S11312D041F23C00805850F4005041F23C04A050CC
S11312E002E05FF0FF3000E0002010BC704710B453
S11312F001003E4B002902D0012911D021E03D48D4
S113130002004FF4A46010664FF4A460506641F2EA
S11313103400C05850F0400041F23404E05013E06F
S11313203A4802004FF40870D0624FF4087090629B
S113133041F23400C05850F0800041F23404E050CF
S113134002E05FF0FF3000E0002010BC704732483C
S1131350006850F47850304908600020704701005C
S1131360012905D1234802004FF44070D060FFE703
S11313700020704701001D4A002902D05FF0FF30B1
S113138008E041F23C00805850F0010041F23C0377
S11313909850002070470100002924D11D4800689E
S11313A050F400401B4A10601C48006850F48860E8
S11313B01A4A10601A48006850F48060184A106095
S11313C01848006850F48060164A10601648006897
S11313D050F4C060144A10601448006850F48060EF
S11313E0124A1060FFE700207047000000700440BC
S11313F00090044000D004408C0D0100A80D0100B1
S1131400AC0D0100C80D010000A0044000B0044070
S113141000C004403C8004403880044020B00440B4
S113142048A004404CA0044004B0044014B004405C
S113143002005FF0FF30704702005FF0FF3070473A
S11314404EF68851CEF20001086840F4700008603E
S1131450BFF34F8FBFF36F8F4FF00070E1EE100AB0
S113146070470000FFF726F8002801D000F0D8F8F4
S11314700020C046C04600F0E7F800F0EDF8000098
S1131480F8B504000D0016001F00002C01D0002D3B
S113149001D10C201DE02868002801D1012018E0AA
S11314A0256000200021C4E904010020A060002080
S11314B060600020E0600020A0610020E061002066
S11314C02062002060623A003100200023681B681B
S11314D09847F2BD38B50400002C02D020680028DB
S11314E001D10C202CE020684068002801D10120A3
S11314F026E020002168096988470500002D01D0F5
S113150028001DE020002168496888470500002D57
S113151001D0280014E00020206000200021C4E94C
S11315200401002060600020A0600020E060002032
S1131530A0610020E06100202062002060620020A1
S113154032BD2DE9F04104000D001600002C04D03A
S11315502068002801D0002E01D10C201BE0206857
S11315608068002801D1012015E06560FFF7E4FCE4
S11315702900C9B2C0B2FFF7E3FC0700B7FBF6F0DD
S11315808046B8F1000F01D1012080464146200079
S1131590226892689047BDE8F08110B50400002CE1
S11315A002D02068002801D10C2009E02068C0681E
S11315B0002801D1012003E020002168C968884780
S11315C010BD0100002901D1002000E0C868704767
S11315D038B504000D00002C04D02068002801D088
S11315E0002D01D10C200AE020684069002801D1B7
S11315F0012004E02900200022685269904732BD8E
S113160010B40300002B01D10C2007E01C000020C3
S1131610A06100202062E261A161002010BC70473B
S113162010B5074979441831064C7C44163404E05B
S11316300A68081D511888470146A142F8D110BD17
S113164058FC00008CFC000080B5024800F006F84D
S1131650002002BDD411010000F06EB92DE9FE4F47
S1131660040060680F30000900010500DFF8A002E3
S11316700560DFF8A0022860DFF89C0228604FF4C0
S1131680507A5FF0000B5A465146280000F05AF990
S113169015F5C87094EC0C0B80EC0C0BC5F8945148
S11316A0D5F8980100090001C5F8980100F0B4F8D4
S11316B000F03CFD0700002F02D0380000F09EF837
S11316C0D5F8B801002806D0D5F8B8018046D5F879
S11316D09C01070018E0D5F89C01D82802D2D82034
S11316E0C5F89C01D5F89C0110300700380000F0C3
S11316F0F9FC8046B8F1000F02D1042000F07EF816
S11317000221404600F06EFD3900404601F037F8F2
S113171017EB0800401E00090001E863D820070009
S1131720380000F0DFFC8146B9F1000F02D104203B
S113173000F064F80121484600F054FD17EB09005D
S1131740401E00090001029015F1500006000298A5
S1131750643870610298306119F10F0000090001CA
S1131760B0617069DFF8B411086001F0EBF80700AC
S1131770002F02D0380000F041F8012115F5E07087
S113178001F04EF9012115F59A7001F049F901F0C3
S113179037FA0700002F02D0380000F02FF800209D
S11317A001900020009001230022E869C16815F52A
S11317B0387000F018FF0600002E02D1042000F05B
S11317C01DF8300000F0E5FF00200190002000909B
S11317D001230022E869C16815F5307000F003FFA9
S11317E00600002E02D1042000F008F8300000F0BA
S11317F0D0FF0EF025FF0020BDE8FE8F38B50400B1
S1131800002501F006FB424800680500FEE7404A57
S113181012681100088170472DE9F0413C480068C6
S1131820040043F6F93020824FF4C570608208202A
S11318302060012060600220E0810F2060810F2081
S1131840A081D4F8A001002802D10120FFF7D6FF1F
S11318500120C4F8040101F045F814F15000060019
S1131860E661E08A6083E08AB084D4F890010004E1
S113187040F47F4050F0FF00F0600320B06000218E
S113188014F5947001F0CAFB002114F5B47001F052
S1131890C5FB00200700D4F8A00105000020804605
S11318A0286800280CD04FF6FF70804508D2E868FD
S11318B0874201D2E868070018F101082035EFE7F4
S11318C0C4F8007114F538700500154828604FF409
S11318D00760A8601348286113486860781CE860B2
S11318E014F53070050011482860E020A860104805
S11318F0286110486860B81CE860002114F5847001
S113190001F08CFB0120C4F81401BDE8F081000053
S11319101800FF1F680C01006C0C0100D000FF1FB1
S113192004000080480C0100D9CD000003000080B1
S1131930580C01007DCD00000746384601F0D0FB6D
S1131940FBE7000062F30F2262F31F42401810F01D
S1131950030308D0C91A1FD3DB0748BF00F8012DC1
S113196028BF20F8022D130030B414461546103950
S113197028BF20E93C00FAD8490728BF20E90C0019
S113198048BF40F8042D890028BF20F8022D48BF25
S113199000F8012D30BC7047C91818BF00F8012D9C
S11319A0CB0728BF00F8012D704700002DE9F64F42
S11319B085B081461C000026069F5FF00008B868C9
S11319C0DFF86418884204D0382000F0DFFD0020DE
S11319D08EE019F10C09B9F1100F01D210208146E3
S11319E019F10F005FEA10195FEA091901F011FA01
S11319F078690090786906000098002865D00098FE
S1131A00B86101F017FA01F004FA0098B969884244
S1131A1003D078690090009806000098002854D0FC
S1131A200098006801900198484548D30198B0EBAC
S1131A3009000390039810280DD3009819EB0000B7
S1131A400500039828606F6000988068A86000987B
S1131A50C0F8009004E00198814600988068050071
S1131A6000987969884201D17D6100E0B5600598EC
S1131A70C068009908810020009948810098476057
S1131A800098009909680818401E0290F86A0299A3
S1131A90884201D20298F862002C0CD00098B9F167
S1131AA00C0104915FF0000A10F10C0B52460499EA
S1131AB05846FFF747FF00980C30804605E0009831
S1131AC0060000988068009096E77869B8617869A4
S1131AD0F86178693862F8687862F868B86201F089
S1131AE0A9F9B8F1000F02D1042000F04FFD4046DF
S1131AF007B0BDE8F08F2DE9FC4F87B082460C009B
S1131B000027DDF820805FF00009D8F80800DFF82E
S1131B101817884204D0382000F038FD0020A8E0CF
S1131B201AF10C0ABAF1100F01D2102082461AF1F0
S1131B300F005FEA101A5FEA0A1A01F06AF9D8F88E
S1131B40140000900098002876D00098C8F8180077
S1131B5001F070F901F05DF90098D8F81810884286
S1131B6004D0D8F8140000900098070000980028CA
S1131B7062D0009800680490B4F10C000099103110
S1131B80884253D30098049908181AEB04010C39BD
S1131B9088424BD3B4F10C0005000098281A039036
S1131BA00498B0EB0A000399401A01900398009935
S1131BB00860019810280CD31AEB05000600019860
S1131BC03060C6F8048000988068B0600098866031
S1131BD005E0019810EB0A0A009880680600C5F831
S1131BE000A0AE600798C068288100206881C5F80D
S1131BF004800098009909680818401E0290D8F8DB
S1131C002C000299884202D20298C8F82C0012983B
S1131C10002809D0BAF10C0005905FF0000B5A4679
S1131C2005992000FFF78EFEA14605E00098070005
S1131C3000988068009085E7D8F81400C8F8180068
S1131C40D8F81400C8F81C00D8F81400C8F820000C
S1131C50D8F80C00C8F82400D8F80C00C8F82800FC
S1131C6001F0E8F8B9F1000F02D1042000F08EFC75
S1131C70484609B0BDE8F08F2DE9FC4F87B0824695
S1131C800C00089801905FF00009BAF1100F01D21E
S1131C9010208246002C07D0601E044204D00C2081
S1131CA000F074FC0020D5E0102C01D210200400B8
S1131CB001988068DFF87015884204D0382000F05D
S1131CC065FC0020C6E01AF10C0ABAF1100F01D22B
S1131CD0102082461AF10F005FEA101A5FEA0A1A0E
S1131CE001F097F80198406900900098002800F0EE
S1131CF0948001980099816101F09CF801F089F8C1
S1131D00009801998969884204D00198406900903B
S1131D10009806000098002800F07F8000982018A2
S1131D200C30611E88430099401A0C388046B8F183
S1131D30200F08D2009820183C30611E8843009977
S1131D40401A0C38804600980068070018EB0A0017
S1131D5087425CD300980600009818EB00000090BE
S1131D60B7EB0807C6F80080B06800998860B7EB45
S1131D700A000390039810280DD300981AEB000072
S1131D800500039828600198686000988068A8603E
S1131D900098856003E0BA460098806805000098C2
S1131DA0C0F800A0009801994969884202D10198BD
S1131DB0456100E0B5600798C0680099088100207B
S1131DC00099488100980199416000980099096838
S1131DD00818401E02900198C06A0299884202D2F3
S1131DE002980199C862129800280CD00098BAF1A0
S1131DF00C0105910021049110F10C0B049A059932
S1131E005846FFF79FFD00980C30814605E0009886
S1131E10060000988068009067E701980199496975
S1131E208161019801994969C161019801994969E0
S1131E30016201980199C968416201980199C968D0
S1131E40816200F0F7FFB9F1000F02D1042000F025
S1131E509DFB484609B0BDE8F08F70B50400DFF87B
S1131E60CC03006805000023D5F81023E96920009D
S1131E70FFF79CFD0600300070BDF8B504000D00AE
S1131E80DFF8A8030068060000200090D6F810339D
S1131E90F26929002000FFF72EFE07003800F2BD8A
S1131EA0F8B504000D00DFF8840300680600002084
S1131EB00090D6F81033F26929002000FFF7DCFE09
S1131EC007003800F2BD70B50400DFF86003006855
S1131ED005000123D5F81023E9692000FFF766FD0A
S1131EE00600300070BD2DE9F84304000D00160013
S1131EF0DFF8380300680700701981465FEA19109B
S1131F000001206115F10F00000900018046C4F8AA
S1131F100C80C4F82C802069B0EB0800C8F80000DD
S1131F200020C8F80800C8F80440C4F81480C4F8B5
S1131F301880C4F81C80C4F8208000F06AFFD7F829
S1131F400403002804D1002117F5417001F066F85C
S1131F50210017F5417001F067F800F06BFFDFF81E
S1131F60C802A0602000BDE8F2832DE9F84F060006
S1131F700027DFF8B80200680700002E04D1012012
S1131F8000F004FB0120ABE0B6F10C000400606833
S1131F908046D8F80800DFF89012884204D0382030
S1131FA000F0F4FA38209BE02089F969C96889B205
S1131FB0884209D020894FF6FF71884204D003205B
S1131FC000F0E4FA03208BE000F023FFD8F81400BB
S1131FD00500D8F81400002803D0D8F8140084426F
S1131FE01CD2D8F81400050020680019A8420FD1AB
S1131FF02068296808182060A868A0605FF00C09B0
S11320005FF0000A524649462800FFF79BFC00E0B7
S1132010A560C8F814400020009017E0A868844226
S113202002D3A868002802D1012000900EE0AD6818
S1132030C8F81C5000F0FEFE00F0EBFED8F81C00BF
S11320408542C6D0D8F814000500C2E700980028DD
S11320502FD020680019A968884213D12068A96884
S1132060096808182060A8688068A0605FF00C09FF
S11320705FF0000AD5F808B0524649465846FFF7C3
S113208061FC01E0A868A06028684019A0420FD153
S11320902868216808182860A068A8605FF00C0907
S11320A05FF0000A524649462000FFF74BFC00E06F
S11320B0AC60D8F81400C8F81800D8F81400C8F8B0
S11320C01C00D8F81400C8F82000D8F80C00C8F890
S11320D02400D8F80C00C8F8280000F0ABFE00205B
S11320E0BDE8F28F70B50400DFF840010068050018
S11320F00023D5F8102315F150012000FFF756FCFA
S11321000600300070BDF8B504000D0047480068B3
S1132110060000200090D6F8103316F15002290072
S11321202000FFF7A9FD07003800F2BD70B53F4855
S11321300068040014F5507006003500C4F810530C
S11321403036D4F89801821B31002800FFF7CBFE0B
S1132150002070BD2DE9F84304000D00A846334863
S113216000680600B8F1000F05D1D6F80403070093
S1132170F868804609E0B5F10C008046D8F8040000
S11321800700D8F8000010EB080800F042FE786958
S113219081463869804519D2B8F80800E16889B2E7
S11321A088420ED1B9F1000F04D0C14502D2D9F84A
S11321B00890F7E7C14504D000F03CFE18F10C008C
S11321C00EE0D8F8000010EB0808E2E73F68F86872
S11321D0804616F541708742D9D100F02BFE0020CD
S11321E0BDE8F2830200002A05D0B2F10C0003001E
S11321F05981012000E000207047B0F10C031A005F
S1132200CB681381704770B5040008480068050066
S11322100123D5F8102315F150012000FFF7C6FB68
S11322200600300070BD000070656D6C1800FF1F63
S11322302DE9F34F83B0DFF850030068824603981A
S113224000280CD00398000CADF80200BDF8020081
S1132250DAF8901189B2884201D012204DE1039836
S113226000F065F98346BBF1000F03D01AF150006A
S1132270834501D1122040E11AF59A7000F081FCE7
S113228000F0C7FDDBF80800092807D100F0D2FDF3
S11322901AF59A7000F037FC00202EE1DBF80800F4
S11322A002280CD1DAF81C0083453DD0DBF8041079
S11322B00800DBF800100C000460606034E0DBF818
S11322C00800C0051DD5DBF80800C0052CD5DBF8D7
S11322D004100800DBF800100D0005606860BAF80F
S11322E07001401EAAF87001DBF8080030F4807019
S11322F0CBF80800DBF8080050F00300CBF8080026
S113230012E0DBF8080080050ED5DBF804100800A5
S1132310DBF800100E0006607060DBF838000089FE
S1132320401EDBF838100881DBF8080040050ED5A4
S1132330DBF840100800DBF83C100F000760786001
S1132340DBF838000089401EDBF8381008810920CA
S1132350CBF80800DAF84800584502D10020CAF842
S1132360480000F067FD00200400102C0DD21AEB89
S11323708400D0F81C02002805D058461AEB8401CA
S1132380D1F81C128847641CEFE7DBF80C00ADF8A9
S11323900000DAF81C00019000215846FFF7DAFE2D
S11323A00400002C1BD021005846FFF7D3FE050083
S11323B00198584504D01AF150012000FFF71DFF81
S11323C05C450AD0DBF88C00844206D0DBF834008C
S11323D0844202D02000FFF7C8FD2C00E1E75FF043
S11323E00040CBF80C00BAF81001012806D10120F6
S11323F0CAF814010020CAF818010EE0BDF8000064
S1132400DAF81411884208D2BDF80000CAF81401A1
S1132410DBF870006C38CAF81801DBF8701008009B
S1132420DBF86C108846C0F80080C8F80400BAF8DD
S11324301001401EAAF810011AF59A7000F063FB0F
S1132440019883453BD100F0E4FCDBF8041008005C
S1132450DBF800108946C0F80090C9F80400DBF8E6
S1132460340000280CD01AF15001DBF83400FFF7D7
S1132470C4FEDBF83400FFF778FD0020CBF834000D
S1132480584600F037FE9BF82800800615D4DBF888
S11324908C00002809D01AF15001DBF88C00FFF7FA
S11324A0ACFEDBF88C00FFF760FD1AF150015846D2
S11324B0FFF7A3FE5846FFF758FD0EF0C3F8DBF80C
S11324C03400002806D0DBF83400FFF74EFD00206E
S11324D0CBF83400584600F00DFE9BF82800800627
S11324E00AD4DBF88C00002803D0DBF88C00FFF75B
S11324F03CFD5846FFF739FD002005B0BDE8F08FDC
S113250010B5040000212000FFF792FE10BD38B57D
S1132510DFF8B40300680400E069050000F079FC0A
S1132520A86A50F48050A86200F084FC31BDF8B56C
S11325300400154800680700002C01D1F86920E068
S1132540F86D844202D117F150001AE000F061FCEA
S1132550D7F808016C380500B7F810010600300000
S1132560461E00280AD0E868A04203D100F062FCAD
S1132570280006E0E86EB0F16C05F0E700F05AFCC4
S11325800020F2BD000000001800FF1F0100DFF86A
S113259038331B681A00138B002B03D0536BDB6892
S11325A0180002E0D369DB6D1800002901D000286F
S11325B007D1138B002B02D0536BD96001E0D36990
S11325C0D965704738B5C04800680400E069050063
S11325D0D5F88400002802D0D5F884008047002074
S11325E0FFF78EFF31BD2DE9F64F85B004001D00C5
S11325F0109E119FB44800688046D8F80001E16835
S113260088420CD218F53870844208D018F530701E
S1132610844204D00E20FFF7B9FF0020ACE0002E66
S113262017D0BA46BAF5BE7F04D80220FFF7AEFF32
S11326300020A1E00023320003A9504600F0BEF8B8
S113264081460398BAEB000A002D1BD0BAF1200A88
S113265018E0A0688246BAF1D90F01D2D820824688
S11326601AF10F005FEA101A5FEA0A1A002D02D06D
S11326701AF1200000E050460023002203A900F0D4
S11326809DF88146B9F1000F04D10A20FFF77EFFBF
S1132690002071E00320C9F80800D9F88C00002854
S11326A003D0D9F88C00834605E0039810EB0900A9
S11326B08346C9F88CB0002D0ED0CDF810B01BF1B4
S11326C0200B049894EC080B80EC080B049804008D
S11326D0206850F0004020605146584600F04FF802
S11326E0D8F82000E1687FF00F0202FB010002909D
S11326F00298C9F81C000298C9F820000298808941
S1132700A9F824006069C9F82800002E05D0D9F87A
S1132710280050F02000C9F828000698019002987B
S113272080890090230052465946484600F0E4FC54
S1132730002801D100201FE0C9F868402068C9F8CA
S11327406400D8F88402C9F87400D8F88802C9F87B
S11327507800D8F88C02C9F87C000598C9F86000A4
S1132760002E08D149464846FFF747FD4946D9F8A7
S11327708C00FFF742FD484607B0BDE8F08F89089A
S1132780491C491E002903D0504A0260001DF8E785
S1132790704710B44C4C24682100C469220054686A
S11327A023004C6A944200D24A620224846043604B
S11327B01C6804601860506010BC70472DE9FB4F22
S11327C082B014005FF0A4083F4800680500B5F823
S11327D010014FF6FE71884201DB002070E003987F
S11327E0C0F80080002C08D0A2465FF0000B5A46C7
S11327F041465046FFF7A6F822E04046FFF763FB48
S11328008246BAF1000F04D00298FFF726FBCAF8FB
S11328108C00BAF1000F01D1504651E0DAF88C0077
S1132820002804D15046FFF7A0FB002048E02421F3
S11328305046FFF7D7FC2521DAF88C00FFF7D2FCCD
S1132840D5F814018146D5F818010600D5F8900191
S11328501FFA89F959EA0040CAF80C00002E03D186
S113286015F58470009002E016F16C0000901AF1E6
S11328706C02009915F5847000F010FCCDF804A0EA
S113288001980600F06E6C380700019719F10109F0
S11328901FFA89F9B9F1000F01D10120814615F51C
S11328A08470874205D0F86880B21FFA89F94845D8
S11328B0E6D0C5F818611FFA89F9C5F81491504695
S11328C005B0BDE8F08F00001800FF1F6B61747342
S11328D00200D36D1800002901D0002800D1D16571
S11328E07047000030B4324C2468200010F5C874DE
S11328F021004C692200082A04D30724220007245B
S11329004C6105E0002A03D10124220001244C611A
S1132910540114F0E004C482002423006A2B04D27E
S1132920C024244D5C555B1CF8E7234C00252B0088
S1132930042B05D25FF0FF3544F823505B1CF7E706
S113294030BC7047F8B51A480068040000202062C3
S1132950D4F80001C01C06003001FFF7B4FA0500EA
S1132960002D01D1042022E005212800FFF73AFCC4
S113297037003800471E002816D02D606D60EF81A7
S1132980D4F8A401C019082807D2D4F8A401C019A6
S1132990400110F0E000A88101E00020A881206A35
S11329A0A86025621035E4E7206A60620020F2BD69
S11329B01800FF1F00E400E080E100E02DE9F84387
S11329C004000D0016001F00DFF82C02006880468A
S11329D0A561002114F1080000F020FB00F019FAB1
S11329E0002E15D1D8F82801814618F59470814538
S11329F009D0A14504D100F01DFA4FF482600DE026
S1132A00D9F80090F1E7210018F5947000F00CFB60
S1132A10DFF8E801606100F00DFA0020BDE8F28300
S1132A2038B504000D000023002229002000FFF720
S1132A30C5FF32BD2DE9F04704000D00DFF8B801F1
S1132A400068060000F0E5F96069DFF8B01188421B
S1132A5003D000F0EFF91F204CE000206061208AD1
S1132A60002829D014F1080000F0FEFA8146B9F1DB
S1132A703C09D9F80800C0051AD5D9F80410080093
S1132A80D9F800108A46C0F800A0CAF80400B6F8C5
S1132A907001401EA6F87001D9F8080030F4807067
S1132AA0C9F80800D9F8080050F00300C9F8080074
S1132AB04846FFF76EFED2E7D6F82801070016F560
S1132AC09470874211D0A7420DD161680800216833
S1132AD08846C0F80080C8F80400B6F83001401EEB
S1132AE0A6F8300101E03F68E9E700F0A3F90DF032
S1132AF0ABFD0020BDE8F08710B5040000212000E4
S1132B00FFF798FF10BDF8B505003B4800680600C4
S1132B1068693A49884201D01F2031E000F079F910
S1132B20A869002826D4288A002823D015F1080093
S1132B3000F09AFA07003C3FB868C00512D57968DE
S1132B40080039680C0004606060B6F87001401E2B
S1132B50A6F87001B86830F48070B860B86850F0B6
S1132B600300B8600020B8633800FFF712FE0DF0D0
S1132B706BFD02E0A869401CA86100F05BF900202D
S1132B80F2BDF8B504001C4800680500288B002835
S1132B9001D00D202FE060691849884201D01F2020
S1132BA029E000F036F9A069012816DAE869060080
S1132BB040F22B40B06014F10800B0637168080063
S1132BC031680F000760786016F13C0114F10800C9
S1132BD000F02AFA0DF046FD02E0A069401EA06153
S1132BE060690649884203D000F024F91F2002E0FE
S1132BF000F020F90020F2BD1800FF1F6D73776C00
S1132C0038B542F22800FEF702FE5FF000510020C2
S1132C10FFF733F9FA21002000F0D3FA0400002C66
S1132C2001D0200054E0554800F0DAFA02230022D3
S1132C3053495448FEF724FC0400002C01D0200022
S1132C4046E0C82200214F48FEF77BFC0400002C1C
S1132C5004D04C48FEF73EFC200039E000220FF27D
S1132C60FD014848FEF7CCFC0400002C04D0454884
S1132C70FEF730FC20002BE04248FEF78EFC0400F7
S1132C80002C04D03F48FEF725FC200020E03E48FD
S1132C90006805003D48C5F88001C82000F099FB94
S1132CA03848FEF78EFC00F0A2FB00210FF2B900B9
S1132CB000F095FB8020364908700520FEF719F9CD
S1132CC00320FEF71FF9002801D0262000E0002091
S1132CD032BD10B52F4800F06BFC0400002C01D06D
S1132CE020003AE000F090FD0400002C01D0200008
S1132CF033E0FEF7B8FA002802D1002000F096FD78
S1132D0025480368244802682349244800F0D0FD7C
S1132D10234802682249234800F022FF224923481D
S1132D2001F06EFA2049224801F0D6FE21492248DA
S1132D3002F060FA2149224802F05CFA2149224853
S1132D4002F0EEFD2149224803F0F6F8214804F090
S1132D50E1F8040004F01EFA002010BD10B50400D0
S1132D6000F0BDFA10BD00001FB5040000A905481D
S1132D70FEF72EFC029804B010BD00000000000015
S1132D80801001009000FF1F1800FF1FC0270900DA
S1132D9000E00740000D0100F00D0100980C010057
S1132DA01C0E0100A00C0100780D0100A80C01000C
S1132DB0B00C01000C0F0100B80C01003C0F010025
S1132DC0C00C0100E80C0100C80C0100580D010002
S1132DD0D00C0100D40D0100F8B50500DFF8300275
S1132DE000680600F069070000F013F8B8680B28C3
S1132DF00CD00B20B860BD6341213800FFF768FD9B
S1132E007968080039680C000460606000F012F80A
S1132E10F1BDDFF8FC1109680800C169496D00299A
S1132E2002D1C18A81F31188C169496D491CC26903
S1132E3051657047DFF8D81109680800C169496D08
S1132E40002913D0C169496D491EC2695165C16920
S1132E50496D00290AD1018B002904D0416B89688E
S1132E6081F3118802E0418B81F311887047DFF808
S1132E70A01109680800806A7047010000207047AB
S1132E8070B50400624800680500A86B002804D1EE
S1132E901820FFF77BFB002021E0E86A844202D37C
S1132EA0286BA04204D21420FFF770FB002016E028
S1132EB0FFF7AFFFA86BE96A611AC90850F821004F
S1132EC00600002E04D03068A04201D03669F8E72D
S1132ED0FFF7B0FF002E01D0F06800E0002070BDC5
S1132EE02DE9F84304000D00160049480068070066
S1132EF0B86B002804D11820FFF748FB00204FE0EE
S1132F00F86A844202D3386BA04204D21420FFF73B
S1132F103DFB002044E0FFF77CFFB86BF96A611ABF
S1132F20C90850F821008046B8F1000F06D0D8F83F
S1132F300000A04202D0D8F81080F5E7B8F1000FE5
S1132F4022D11420FFF7CEF88046B8F1000F06D145
S1132F50FFF770FF0420FFF719FB002020E0232176
S1132F604046FFF73FF9B86BF96A611AC90850F88F
S1132F702100C8F81000B86BF96A611AC90840F852
S1132F8021802448814602E0D8F804008146C8F82C
S1132F900040C8F80450C8F80C60FFF74BFF4846DF
S1132FA0BDE8F2832DE9F04104000D00A54201D2F1
S1132FB00C202BE01648006806001748C6F8F400F9
S1132FC01448B062281B401CC008401C80465FEABD
S1132FD08800FFF718F90700002F01D1042015E03D
S1132FE003213800FFF7FEF8B763F4623563A6F8EF
S1132FF03C830320A6F83E034046B0F101080028B4
S113300003D0002047F82800F6E70020BDE8F0814F
S11330101800FF1FD92D0000A107010000604060C7
S1133020002202814181704738B504000D00FFF78A
S1133030F0FE6089002807D020896189884203D383
S1133040FFF7F8FE00200EE06168096808002860B8
S113305061680D606168696045602089401C208159
S1133060FFF7E8FE012032BD70B50400FFF7D1FE82
S11330702089002803D1FFF7DDFE00200DE0206841
S113308005006968080029680E00066070602089E0
S1133090401E2081FFF7CEFE280070BD70B50400ED
S11330A00D001600002D00D12500FFF7B2FE608947
S11330B0002807D020896189884203D3FFF7BAFE2C
S11330C000200BE02968080030602E6075604660BF
S11330D02089401C2081FFF7ADFE012070BD000057
S11330E080B5C046C046024A11001820ABBEFBE7BB
S11330F026000200704700002DE9FE4F04000D0079
S11331000C9E0D9F5FF0010901984019401E0009B3
S1133110000100900098643880460098206115F101
S11331200F0000090001A061C4F814805FF0640A74
S11331305FF0000B5A4651464046FEF703FC124826
S1133140C8F84000C8F82C700298406850F001009C
S1133150C8F844005FF08070C8F84800C8F8587098
S11331600020C8F80000C8F804607FF00200C8F826
S1133170280094F82800800703D5200000F006F802
S113318081464846BDE8FE8FC525000038B50400D9
S11331909420FEF798FE0500002D05D1042120009F
S11331A0FFF796FB00200BE022212800FFF71AF816
S11331B021002800FFF721F8E068286165630120F9
S11331C032BD70B504000D0029002000FFF7EAFEAF
S11331D00600002E01D103F0F9FF300070BD00009D
S11331E00100034A12681000014A11607047000090
S11331F008ED00E070B50600DFF800020068040086
S1133200002E02D103F0ECFF1DE0E0690500761EFC
S113321015F14401300004F01BF8D5E91101801CBC
S113322051F10001C5E91101FFF7F3FD15F1440265
S113323014F5A87115F1440004F04EF8280000F0CC
S113324003F8FFF7F7FD70BD2DE9F8430400DFF83C
S1133250AC010068804618F5B4708146B8F8700176
S1133260002826D0D8F868010500B8F87001401C81
S11332700600761E002E1CD0D4E91123D5E91101D5
S11332808B4204D801D3824201D201270CE0D5E954
S11332901123D4E911018B4205D801D3824202D211
S11332A05FF0FF3700E00027002F02D5A9462D6804
S11332B0DFE76168080021688C46C0F800C0CCF8DC
S11332C004002200494618F5B470FFF7E7FEA06831
S11332D050F48070A0600DF0C5F9BDE8F1832DE9CC
S11332E0F047DFF81C0100680400D4E95401401CD5
S11332F051F10001C4E95401FFF78BFDD4F88801B2
S1133300002806D0D4F88C01D4F888118847C4F872
S1133310580114F5A87004F009F8B4F87001060017
S1133320002E44D0D4F8680105003000461E002861
S11333303DD028688246D5E91123D4E954018B4253
S113334004D801D3824201D201270CE0D4E95423EA
S1133350D5E911018B4205D801D3824202D25FF034
S1133360FF3700E00027002F21D4B4F87001401E7D
S1133370A4F870016968080029688946C0F80090BB
S1133380C9F80400A86840050CD5296C0800E96B4D
S11333908846C0F80080C8F80400A86B0089401E65
S11333A0A96B08812800FFF7F4F95546BDE7FFF73C
S11333B041FDD4F80003002802D0D4F8000380476C
S11333C0D4F83803002802D0D4F838038047BDE885
S11333D0F0870B4A12681100C1F87C017047084B52
S11333E01B681A00C2F88801C2F88C117047044A9D
S11333F012681100C1F88401704700001800FF1F13
S11334001800FF1F2DE9FE4F04000D0091461E0019
S11334100C9FB9F1000F02D55FF0010801E05FF0E5
S11334200008B9F1000F02D5D9F10009FFE7B9F19D
S1133430010F07D0B9F1020F04D0B9F1040F01D084
S11334400C2048E0A54857EA050111F0030150F8A3
S1133450210002900298484501D20C203BE05FF025
S1133460300A5FF0000B5A4651462000FEF76AFA14
S1133470B8F1000F0CD019EB0600401E20600120AB
S113348060605FF0FF30A0605FEA4900A06214E072
S1133490924857EA060111F0030150F82100019007
S11334A00198814502D2CDF8009001E00198009086
S11334B02660009860600098A0602561C4F81490AC
S11334C00020A061C4F82090022099FBF0F039009C
S11334D0C14061620020BDE8FE8F2DE9FE4F04006B
S11334E00D0091461E000C9F19F1010F02DA5FF0E6
S11334F0010801E05FF00008B9F1000F02D5D9F12D
S11335000009FFE7B9F1010F07D0B9F1020F04D0A8
S1133510B9F1040F01D00C2048E0704857EA0501C6
S113352011F0030150F8210002900298484501D29D
S11335300C203BE05FF0300A5FF0000B5A46514626
S11335402000FEF7FFF92560C4F804900020A06075
S1133550B8F1000F0CD019EB0600401E20610120C9
S113356060615FF0FF30A0615FEA4900E06214E04F
S11335705A4857EA060111F0030150F8210001905E
S11335800198814502D2CDF8009001E001980090A5
S11335902661009860610098A061C4F82090022020
S11335A099FBF0F03900C14061620020BDE8FE8F54
S11335B070B50400002C01D1012024E000F024F8AF
S11335C047480460002047490860454800680500F2
S11335D0A868002816D0286800280CD0286800683D
S11335E0002808D068682968096888470600002E02
S11335F001D0300007E03B480068401C39490860AE
S11336000C35E5E7002070BD70B50026344800682D
S1133610002801D1002020E031480068040031482E
S11336200068002815D0206800280BD02068406866
S1133630002807D060682168496888470500002E83
S113364000D12E000C3427480068401E254908602C
S1133650E5E7002022490860300070BD2DE9F04103
S113366004000D00002C01D1012033E0002D01D510
S11336700C202FE0A8461A4800680600B06800280D
S113368007D0B068804504DBB068B8EB00080C369E
S1133690F4E7B068002801D10C201BE03068002852
S11336A003D030688068002801D12C2012E0424603
S11336B07168200033689B6898470700002F08D181
S11336C03068216808600020216848600020216873
S11336D088603800BDE8F08100000000701001002F
S11336E00401FF1F0801FF1F10B50400002C02D0C5
S11336F02068002801D1012009E02068C068002862
S113370001D12C2003E020002168C968884710BD3E
S113371070B504000D001600002C02D020680028AB
S113372001D101200BE020684069002801D12C2040
S113373005E032002900200023685B69984770BDCA
S113374070B504000D001600002C02D0206800287B
S113375001D101200BE02068C069002801D12C2090
S113376005E03200290020002368DB69984770BD1A
S113377038B504000D00002C02D02068002801D1C7
S113378001200AE02068006A002801D12C2004E00E
S1133790290020002268126A904732BD10B5040047
S11337A0002C02D02068002801D1012009E0206803
S11337B0406A002801D12C2003E020002168496AD6
S11337C0884710BD10B50400002C02D020680028E2
S11337D001D1012009E02068806A002801D12C2051
S11337E003E020002168896A884710BD10B40300F3
S11337F0002B01D1012005E01C0000206060A260C4
S11338006160002010BC704710B5074800680400D0
S1133810002114F51E70FFF701FC012114F5177047
S1133820FFF7FEF810BD00BF1800FF1F70B50400BD
S11338300025174EFFF7EDFA7069C00712D57069BD
S113384030F0100070615FF0FF30B0600120306034
S1133850706950F01000706100200E49086000206B
S11338600D490860FFF7E6FA7069C00602D53069B1
S1133870C0050AD4306950F4807030617D20FFF7B0
S1133880B9FC706950F010007061280070BD000030
S113389000D00340FC00FF1F0001FF1FC17851F05E
S11338A02C01C1707047C17811F05301C170704789
S11338B0F0B585B004000D0016001F0004970396B0
S11338C00295084801900FF2FD1000900FF2890351
S11338D00FF2A1020FF21101200003F043FD05B025
S11338E0F0BD0000653D00002DE9F04104000D002D
S11338F0606907002A0014F11801380000F04CF93F
S11339008046B8F1000F01D0404622E0A0690600CD
S11339103869FFF7B5FA30643869FFF7AEFAF06337
S113392022000FF289017869FFF7DAFA3063012285
S1133930F969786904F0FEF822000FF2CD013869C4
S1133940FFF7CEFA30630122B969386904F0F2F85E
S11339500020BDE8F081000038B504000D00290006
S1133960200000F099F92A6C296B2069FFF7B8FA56
S1133970002032BD70B504001425E66A0421606895
S1133980C0B2FDF73DFBE80603D53000FFF786FF24
S113399002E03000FFF787FF280704D5082160689C
S11339A0C0B2FDF72DFB002070BD000070B4010013
S11339B08A69D36A1C79156D6D1C1565250702D5B6
S11339C0956E6D1C9566E50702D5156E6D1C156622
S11339D0650702D5156F6D1C1567A50702D5556ED1
S11339E06D1C55660A252C420BD0DD799D7CED07B4
S11339F007D55D7C55F040055D749D7C55F001054F
S1133A009D7470BC704700002DE9F04182B0040041
S1133A102500AE69F76A97F80480306D401C306564
S1133A205FEA087002D5B06E401CB0665FEAC870E9
S1133A3002D5306E401C30665FEA487002D5306FA4
S1133A40401C30675FEA887002D5706E401C706657
S1133A500A2018EA000F0CD0F879B87CC00707D503
S1133A60787C50F040007874B87C50F00100B87451
S1133A7025E05FEA88600ED5F87900900099C9B214
S1133A80280003F085FF002802D1F06E401CF06688
S1133A90706D401C70655FEA086010D5280003F063
S1133AA0F9FF00900098002802D40098F87103E010
S1133AB0F87810F07F00F870B06D401CB065BDE878
S1133AC0F381000010B484692200D46A23001C79B5
S1133AD02406FCD5D971946D641C9465DC7854F08B
S1133AE08004DC7010BC704770B40300002500240F
S1133AF000291AD0002A18D01001B1FBF0F00500FB
S1133B00002D0DD0280100FB1210560816EB4000C2
S1133B10B0FBF2F00400202C02D36D1C0020040042
S1133B20B5F5005F01D316200EE0280A10F01F003F
S1133B3018705D70987A10F0E0009872987A14F01A
S1133B401F0630439872002070BC7047C17851F052
S1133B500C01C1707047C17811F0F301C170704756
S1133B6070B586B004000D001600049603950FF29C
S1133B70F51002900FF28D1001900FF26910009071
S1133B800FF245130FF211120FF20D01200004F091
S1133B9033F806B070BD00002DE9F84F04000D00A5
S1133BA01600606881464846C0B204F0F7FA070080
S1133BB0002F01D12B206DE04FF49870FEF723FB0A
S1133BC08046B8F1000F01D1042063E0C5F80080FD
S1133BD0C8F82C70404621002C2204F009FB012077
S1133BE0C8F84C00D8F80800824615208346594688
S1133BF0C9B24846C0B2FDF703FA04214846C0B230
S1133C00FDF7FEF9D8F80C2051463800FFF76CFF99
S1133C100020B870F87810F0FD00F870B87A10F051
S1133C203F00B87200203872002078720020B8710A
S1133C30387CC0F30210C0B2002802D10020F8740E
S1133C4007E00120397CC1F30211491C8840401E61
S1133C50F87401207875F87810F0F300F870387C67
S1133C6050F088003874787C50F0C00078745FEAB3
S1133C70CB6003D53800FFF769FF02E03800FFF797
S1133C806AFF5FEA0B7004D508214846C0B2FDF70D
S1133C90B7F90020BDE8F28F70B504000D000426CA
S1133CA004216068C0B2FDF7ABF90020E96AC8706E
S1133CB0300704D508216068C0B2FDF7A1F92800D7
S1133CC0FEF753F9002070BD38B50400E56A287981
S1133CD0800602D403F084FAF9E7606D401C606545
S1133CE0E87932BD70B504000D00E66A307900064B
S1133CF002D403F075FAF9E7F571A06D401CA065D4
S1133D0070BD000030B401000A00CB6A1C792007A2
S1133D1002D5906E401C9066E00702D5106E401CE0
S1133D201066600702D5106F401C1067A00702D50B
S1133D30506E401C50660A2004420BD0D879987CFF
S1133D40C00707D5587C50F040005874987C50F058
S1133D5001009874987C400601D4012000E0002002
S1133D6030BC70472DE9F84304000D001600E76AE3
S1133D705FF00009606881462800C01E00F075816C
S1133D80401F00F0798140F6FA41401A00F03C816E
S1133D90401E76D0401E77D0401E00F08580401E25
S1133DA000F09B80801F34D0401E1ED0401E00F0C7
S1133DB07C81401E00F06F81401E00F0BC80401EDC
S1133DC000F0A980001F00F09980401E00F09C8044
S1133DD0401E00F03981401E00F04381C01E00F0F7
S1133DE09F81401E00F0B881D2E108208046B87857
S1133DF0C0060BD594F84C00C00707D5B8788007E7
S1133E0002D5B87A800601D518F10108C6F80080F9
S1133E10C1E13068082804D03068092801D00C209A
S1133E20BAE13068082814D194F84C00C00727D5AB
S1133E30B87A10F0DF00B872B878800704D5B87883
S1133E4050F01000B8701BE0B87810F0EF00B870B4
S1133E5016E094F84C00C00710D5B87850F0100064
S1133E60B870B878800704D5B87A50F02000B872DA
S1133E7006E0B87A10F0DF00B87201E016208BE19A
S1133E8089E1E068306086E1A06880463268414696
S1133E903800FFF729FE8046B8F1000F01D04046F4
S1133EA07AE13068E06076E1206D3060361D606D47
S1133EB03060361DA06D3060361DE06D3060361DFB
S1133EC0206E3060361D606E3060361DA06E30602E
S1133ED0361DE06E3060361D5DE100202065002057
S1133EE060650020A0650020E065002020660020B9
S1133EF060660020A0660020E0664CE13879C0B21C
S1133F00C009C0B2306046E13879C0B2400910F04F
S1133F10010030603FE101208046B878800707D572
S1133F20B878C00702D50220804601E0032080460D
S1133F30C6F800802FE13068012804D061D303283B
S1133F4038D014D35DE0B87880070FD5B87810F076
S1133F50FC00B870B87A800604D5B87A10F0DF0097
S1133F60B87203E0B87810F0EF00B8704BE094F842
S1133F704C00C00701D416200EE1B878800704D5A0
S1133F80B87850F00100B87013E0B87850F003002E
S1133F90B870B878C00604D5B87A50F02000B8726A
S1133FA007E0B87A10F0DF00B872B87850F010006B
S1133FB0B87028E094F84C00C00701D41620EBE058
S1133FC0B878800704D5B87810F0FE00B87017E010
S1133FD0B87850F00200B870B87810F0FE00B870ED
S1133FE0B878C00604D5B87A50F02000B87207E05B
S1133FF0B87A10F0DF00B872B87850F01000B870DA
S113400001E00C20C8E0C6E0307880060BD560687B
S1134010FDF7A5F9787B10F0F6007873787B50F003
S1134020020078730FE03078000708D5787B10F031
S1134030FD007873787B50F00900787303E0787B97
S113404010F0F4007873A6E03068012804D1F87801
S113405010F0FB00F87003E0F87850F00400F870FA
S113406099E038794006FCD595E0B87C0006FCD58B
S113407038794006FCD58EE0F8798DF8000038795F
S1134080800603D5F8798DF80000F8E7787C50F0C5
S1134090400078747FE094F84C00C00702D50120FA
S11340A0306001E00320306075E03068012814D1ED
S11340B094F84C00C00732D4B87A10F0DF00B8721C
S11340C0B87810F0EF00B870B87910F0BF00B8718C
S11340D0E06C50F00100E06421E0306803281CD15A
S11340E094F84C00C0071AD5B878C00602D4B87842
S11340F0800701D516204FE0B87A10F0DF00B872BF
S1134100B87850F01000B870B87950F04000B87129
S1134110E06C40084000E06401E00C203CE03AE040
S1134120306801280BD1B87B50F00400B87301212A
S11341304846FDF77DF900280DD016202CE0B87B09
S113414010F0FB00B87300214846FDF771F9002810
S113415001D0162020E01EE0306801280BD1B87B86
S113416050F00400B87301214846FDF765F90028B2
S11341700DD0162010E0B87B10F0FB00B8730021BE
S11341804846FDF759F9002801D0162004E002E062
S113419040F6092000E00020BDE8F283F0B50200FB
S11341A0002000275FF0FF3C65465FF0000C63468B
S11341B0032B1FD25FF0000C6446402C18D2DFF8AA
S11341C090C45CF823C0DFF88CE45EF824E00EFBB6
S11341D00CFC01FB0CFCBCEB020C6646002E00D56B
S11341E07642AE4202D2350018002700641CE4E790
S11341F05B1CDDE78001C0B217F03F073843F0BD18
S11342003EB504000D0002950FF2451001900FF227
S1134210155000900FF251430FF2FD020FF2090105
S1134220200004F011F83EBD2DE9F04104000D001A
S11342301600207804F0F8F80700002F02D1DFF808
S1134240180467E05C20FDF7DEFF8046B8F1000F3C
S113425001D104205EE040F20B414046FDF7C2FF6D
S11342602078FDF744F8C5F8008040462100142268
S113427003F0BEFFC8F814700020C8F8180000202E
S1134280C8F81C000020C8F82000607888F82400D2
S1134290002088F82500002088F82600002088F8EF
S11342A027000020C8F828000020C8F82C000020AF
S11342B0C8F830000020C8F834000020C8F83800DE
S11342C00020C8F83C000020C8F840000020C8F8CE
S11342D044000020C8F848000020C8F84C00002022
S11342E0C8F850000020C8F854000020C8F858004E
S11342F00020B8700020F870A07840003870616821
S1134300DFF85803FFF74AFF7870B87850F0800060
S1134310B8700020BDE8F08170B504000D00002DD8
S113432001D0002C02D1DFF8380310E068690600E0
S1134330F078800601D5CB4809E00020B070FF205A
S1134340F070A069FDF711FE0020A061002070BD8F
S11343502DE9F04788B004000D0016005FF0000856
S1134360606907002800C01E36D040F2FE31401AB2
S113437000F0E580401E00F0F380401E00F0C08095
S1134380401E00F0C880401E00F0D080401E00F0A7
S11343901281401E00F01881401E00F0FA80401E79
S11343A000F00081401E00F09980401E44D0401E61
S11343B060D0401E00F01181401E00F01781401EA5
S11343C000F02681401E00F09180401E00F0938092
S11343D0401E00F02A8136E194F8270010F0030013
S11343E002280CD1E06B216C8842FBD1F8788DF85F
S11343F00000C0B210F0A000202803D1F6E7F8783E
S11344008DF80000206CE06394F8270080070BD53A
S11344109DF80000800607D4002084F827000020BF
S1134420A062072084F82500002E04D09DF8000027
S113443010F00100306006E18A488046B8788006B2
S113444017D594F82500022803D1E06B216C88422B
S11344500AD094F82500032802D1A06A002803D0CA
S113446094F82500072804D1012084F825000020B1
S11344708046E8E0B87810F0E700B870F87850F0BB
S11344801200F8700020A062002084F827000020A9
S113449084F82500206B6063B878800603D43879EB
S11344A08DF8000003E0B87810F0DF00B870F878F9
S11344B08DF800009DF8000080060ED59DF80000E0
S11344C0800706D5F87850F00200F87038798DF836
S11344D00000F8788DF80000ECE7B4E0002E02D17B
S11344E05F48804601E03068A062ACE0B87810F024
S11344F07F00B870A7E0B87850F08000B870A2E0F0
S113450094F82500002802D05648804602E0002096
S113451084F8240097E094F82500002802D051483C
S1134520804602E0012084F824008CE0002E02D1B1
S11345304B48804602E094F82400306083E0002E6B
S113454002D1474880460AE0F878800602D54548FB
S1134550804604E031684148FFF720FE787072E03D
S1134560002E02D13E48804612E039487978890904
S113457050F8210082463748797811F03F0150F80D
S113458021008146354809FB0AF1B0FBF1F03060A7
S113459059E0002E02D13248804602E0306884F8A7
S11345A0260050E0002E02D12D48804602E094F807
S11345B02600306047E0002E02D12948804602E000
S11345C03068400038703EE0002E02D12448804616
S11345D002E038784008306035E0002E02D12048EF
S11345E0804602E094F8250030602CE0002E02D1D1
S11345F01B4880460BE014F1440090EC060B01A824
S113460080EC060B01A890EC060B86EC060B1AE076
S1134610002060640020A0640020E0640020206585
S1134620002060650020A0650DE0002E02D10C483A
S1134630804607E0F878800602D50120306001E06A
S113464000203060FFE7404608B0BDE8F087000076
S1134650640F0100700F0100020901000087930339
S113466003090100010901002DE9F84304000D00CC
S11346701600A06907007869804697F8270050F073
S1134680010087F8270097F8250081465FFA89F929
S1134690B9F1000F04D05FFA89F9B9F1010F38D1EB
S11346A0032087F8250097F82400002831D198F8D2
S11346B0020050F0100088F8020098F8030050F04F
S11346C0020088F803005FFA89F9B9F1010F06D1F5
S11346D098F8020050F0040088F8020005E098F809
S11346E0020050F0200088F8020097F8270050F0EC
S11346F0020087F8270097F82600400050F00100D8
S113470088F80400F86C401CF86498F803008007EB
S1134710FBD533002A003900404600F05EF8BDE8BE
S1134720F28300002DE9F84304000D001600A0698F
S113473007007869804697F8270010F0FE0087F894
S1134740270097F8250081465FFA89F9B9F1000F2F
S113475004D05FFA89F9B9F1010F36D1022087F844
S1134760250097F8240000282FD198F8020050F073
S1134770100088F8020098F8030050F0020088F84E
S113478003005FFA89F9B9F1010F06D198F8020024
S113479050F0040088F8020005E098F8020050F098
S11347A0200088F8020097F8270050F0020087F8EC
S11347B0270097F82600400088F80400F86C401C95
S11347C0F86498F803008007FBD533002A00390009
S11347D0404600F002F8BDE8F28370B40400002003
S11347E00600B342C0F07581E0780500A078800629
S11347F013D49E4201D130006CE191F82700800768
S11348000BD5A80609D4002081F82700002088626F
S1134810072081F8250030005CE1A807E4D591F871
S1134820270050F0020081F82700A078800640F1AC
S11348309480A078C00650D5E8070BD5E07850F0F6
S11348400200E070072081F82500886D401C88650F
S113485033003CE191F82500022813D191F8270098
S1134860C0070DD49E4280F03281E07850F00200FF
S1134870E07010782071521CC86C401CC86426E19A
S1134880330024E191F82500032824D191F827006E
S1134890C0071ED5A07810F0EF00A070886A012828
S11348A004D1A07850F00800A07003E0A07810F0C4
S11348B0F700A070E07850F00200E070886A0028E9
S11348C004D1072081F82500330000E12079761E09
S11348D0FDE03300FBE03300F9E091F82500032804
S11348E039D191F82700C00733D5886A002830D021
S11348F09E4280F0EC80E07850F00200E070886A1C
S1134900401E8862886A012804D1A07850F008000B
S1134910A07003E0A07810F0F700A070886A002867
S113492003D1A07850F01000A07020791070521CB0
S1134930886A002809D1A07810F0EF00A070072041
S113494081F82500701C03001E00886C401C8864DC
S1134950BDE03300BBE03300B9E0E8060AD5E078F7
S113496050F01000E070062081F82500086D401C0E
S113497008653300680648D591F82400002802D160
S1134980486D401C486568071AD5052081F8250044
S113499091F82700C00711D49E4280F09880A07837
S11349A050F01000A070E07850F00200E070107831
S11349B02071521CC86C401CC86488E0330086E037
S11349C0042081F8250091F82700C0071BD5002E8C
S11349D019D1886A002816D0A07810F0EF00A070D2
S11349E0E07850F00200E070886A012804D1A078D1
S11349F050F00800A07003E0A07810F0F700A07059
S1134A002079761E63E0330061E0E8065ED4A07886
S1134A10C00628D5E8070BD5E07850F00200E07016
S1134A20072081F82500886D401C886533004EE01E
S1134A3091F82500022803D091F82500052810D10B
S1134A4091F82700C0070CD49E4240D2E07850F081
S1134A500200E07010782071521CC86C401CC864BD
S1134A6035E0330033E091F82500032803D091F8B2
S1134A702500042828D191F82700C00724D5886A86
S1134A80002821D09E4222D2E07850F00200E0704B
S1134A90886A401E8862886A012804D1A07850F090
S1134AA00800A07003E0A07810F0F700A070886AF6
S1134AB0002802D1072081F8250020791070521CAB
S1134AC0886C401C886402E0330000E03300761CEC
S1134AD087E6180070BC70473EB504000D000295CF
S1134AE04B4801900FF2512000900FF235130FF252
S1134AF0CD020FF20D01200003F0BAFC3EBD000010
S1134B002DE9F04704000D00606980462A0014F185
S1134B1018014046FFF788FB8246BAF1000F01D026
S1134B20504649E0A06907007869060098F800003B
S1134B3003F08EFC8146B9F1000F01D135483BE00A
S1134B40C7F82090D8F81000FDF7CCFAF862F86A9C
S1134B50002801D104202FE0D8F80C00FDF7C2FA98
S1134B60B863B86B002806D1F86AFDF7FEF9002097
S1134B70F862042020E040F20941F86AFDF732FBB4
S1134B8040F20A41B86BFDF72DFB4846FEF778F971
S1134B90F8613A000FF2B1214846FEF7A1F9B86175
S1134BA0012298F808104846C0B202F0C3FFB0785A
S1134BB050F04000B0705046BDE8F08770B5040076
S1134BC00D00002D01D0002C01D113481FE06869AD
S1134BD00600F078800601D5104818E00020B07077
S1134BE0FF20F070EA69A969286AFEF779F9A069DB
S1134BF0FDF7BBF90020A061E86AFDF7B6F90020D3
S1134C00E862A86BFDF7B1F90020A863002070BD2D
S1134C1051430000020901000309010001090100D8
S1134C202DE9F84304000D001600A0690700786917
S1134C308046FEF7EEF8386A02F0C7FFFEF7FAF88E
S1134C4000208146B14513D2786B396B88420FD06E
S1134C50F86A796B4A1C7A63085C28706D1C786B5F
S1134C603969884201D30020786319F10109E9E721
S1134C7097F8270050F0010087F8270097F82500DF
S1134C808DF800009DF80000002803D09DF8000076
S1134C90012837D1032087F8250097F8240000283D
S1134CA030D198F8020050F0100088F8020098F80B
S1134CB0030050F0020088F803009DF8000001286A
S1134CC006D198F8020050F0040088F8020005E0CC
S1134CD098F8020050F0200088F8020097F82700A6
S1134CE050F0020087F8270097F82600400050F0A3
S1134CF0010088F80400F86C401CF86498F803007C
S1134D008007FBD598F8020080060FD497F8270097
S1134D1080070BD598F80300800607D4002087F895
S1134D2027000020B862072087F82500386A02F0BF
S1134D3039FF4846BDE8F2832DE9F04704000D0031
S1134D401600A069070078698046FEF762F8386AA1
S1134D5002F03BFFFEF76EF800208146B14514D205
S1134D60F86B401C8246F868824501D300208246D5
S1134D70386C824509D0B86B2978FA6B11546D1CD4
S1134D80C7F83CA019F10109E8E797F8270010F0EB
S1134D90FE0087F8270097F825008246BAF1000F35
S1134DA002D0BAF1010F34D1022087F8250097F818
S1134DB0240000282DD198F8020050F0100088F843
S1134DC0020098F8030050F0020088F80300BAF1DA
S1134DD0010F06D198F8020050F0040088F8020090
S1134DE005E098F8020050F0200088F8020097F8D7
S1134DF0270050F0020087F8270097F826004000AB
S1134E0088F80400F86C401CF86498F803008007E4
S1134E10FBD598F8020080060FD497F82700800786
S1134E200BD598F80300800607D4002087F82700E4
S1134E300020B862072087F82500386A02F0B2FE25
S1134E404846BDE8F0870000F8B5040025006E6907
S1134E50F0780700686C401C6864B078800640F104
S1134E60C480B078C00665D5F8070CD5F07850F04A
S1134E700200F070E86B2864072085F82500A86D0F
S1134E80401CA865AFE195F82500022821D1E86B04
S1134E90296C884219D095F8270010F003000228E5
S1134EA013D1F07850F00200F070A86B296C4A1C02
S1134EB02A64085C3071286CE968884201D30020B8
S1134EC02864E86C401CE8648DE1286A02F07DFEE9
S1134ED089E195F82500032828D195F8270010F0DA
S1134EE0030003281ED1B07810F0EF00B070A86A58
S1134EF0012804D1B07850F00800B07003E0B07815
S1134F0010F0F700B070F07850F00200F070A86A6A
S1134F10002803D1072085F8250064E130798DF855
S1134F20000060E1286A02F050FE5CE1286A02F0A9
S1134F304CFE58E195F82500032852D195F8270036
S1134F4010F00300032848D1A86A002845D0286B34
S1134F50401C8DF800009DF80000C0B22969884209
S1134F6002D300208DF800009DF80000C0B2696BE8
S1134F70884203D1286A02F028FE34E1F07850F028
S1134F800200F070A86A401EA862A86A012804D131
S1134F90B07850F00800B07003E0B07810F0F7007B
S1134FA0B070A86A002803D1B07850F01000B07037
S1134FB0E86A296B32790A549DF800002863A86ACC
S1134FC0002806D1B07810F0EF00B070072085F803
S1134FD02500A86C401CA86405E1286A02F0F5FDD0
S1134FE001E1286A02F0F1FDFDE0F80609D5F07848
S1134FF050F01000F070062085F82500286D401C44
S1135000286578065DD595F82400002802D1686DDE
S1135010401C6865780728D5052085F8250095F893
S1135020270010F0030002281BD1E86B296C88428A
S113503017D0B07850F01000B070F07850F0020043
S1135040F070A86B296C4A1C2A64085C3071286CC7
S1135050E968884201D300202864E86C401CE864B5
S1135060C1E0286A02F0B1FDBDE0042085F8250006
S113507095F8270010F0030003281ED1686B296BF4
S113508088421AD1A86A002817D0B07810F0EF002F
S1135090B070F07850F00200F070A86A012804D1D2
S11350A0B07850F00800B07003E0B07810F0F7006A
S11350B0B07030798DF8000095E0286A02F085FD23
S11350C091E0F80600F18C80B078C00638D5F80776
S11350D00CD5F07850F00200F070E86B28640720DB
S11350E085F82500A86D401CA8657CE095F825008E
S11350F0022803D095F8250005281DD1E86B296CFA
S1135100884219D095F8270010F00300022813D123
S1135110F07850F00200F070A86B296C4A1C2A64E5
S1135120085C3071286CE968884201D30020286447
S1135130E86C401CE86456E0286A02F046FD52E040
S113514095F82500032803D095F82500042843D1B9
S113515095F8270010F0030003283DD1A86A002821
S11351603AD0286B401C8DF800009DF80000C0B2B6
S11351702969884202D300208DF800009DF80000C0
S1135180C0B2696B884203D1286A02F01EFD2AE08E
S1135190F07850F00200F070A86A401EA862A86A75
S11351A0012804D1B07850F00800B07003E0B07862
S11351B010F0F700B070A86A002802D1072085F823
S11351C02500E86A296B32790A549DF800002863A7
S11351D0A86C401CA86406E0286A02F0F6FC02E011
S11351E0286A02F0F2FC95F8270050F0020085F8D6
S11351F02700F1BDF0B585B004000D000027286834
S11352008068002803D02868C068002802D140F6CE
S11352100B2057E04420FCF7F6FF0600002E01D1D6
S113522004204FE04FF480613000FCF7DBFF286A74
S1135230F063686A306416F1240015F1080191ECFA
S1135240060B80EC060B2868F061F0690068002802
S113525006D016F120016868F269126890470700C9
S1135260002F04D03000FCF780FE38002AE0012132
S11352703000FDF7D5FB03960FF24D0002900FF2BC
S1135280D12001900FF2B12000900FF295230FF27C
S113529079220FF2ED11200003F0DCF90700002F52
S11352A00FD0F0694068002803D0306AF16949687A
S11352B088473000FDF720FC3000FCF756FE38002C
S11352C000E0002005B0F0BD70B504000026606A5F
S11352D00500E8694068002804D0286AE96949683B
S11352E088470600002E01D0300006E02800FDF7B4
S11352F003FC2800FCF739FE002070BD2DE9F84FAF
S113530004000D0016001F00002F03D0002D04D14F
S1135310002E02D15FF0FF3074E0606880462068A0
S1135320406A8146D8F80000002812D14846FDF7AB
S113533028FC8346BBF1000F05D05846FDF726F93B
S11353405FF0FF305EE00120C8F800000120C8F8DB
S11353501C00D8F81C00002814D018F10401D9F856
S11353602000D9F81C20926890478346BBF1000FB7
S113537005D05846FDF70AF95FF0FF3042E00020FF
S1135380C8F81C00D9F83C00002810D0D9F8401007
S1135390D8F81000D9F83C2090478346BBF1000FA1
S11353A005D05846FDF7F2F85FF0FF302AE0002DF3
S11353B004D1D8F82000C00300D535003B003200EA
S11353C02900D9F82000D9F81CC0DCF80CC0E0474B
S11353D08246BAF1010F14DBD8F80C10C91DC908B4
S11353E0BAFBF1F10800002E04D0D8F824104118BB
S11353F0C8F82410002D04D0D8F828104018C8F894
S113540028005046BDE8F28F2DE9F84304000D0052
S11354105FF00008606806002068406A0700306892
S1135420002827D0002D1BD1307D80070CD4F869CB
S11354300069002808D0386AF969096988478146F3
S1135440B8F1000F00D1C846F86B002808D0396CB9
S11354500020FA6B90478146B8F1000F00D1C8468E
S11354603800FDF750FB814600203060B8F1000F92
S113547000D1C8460120F0614046BDE8F283000037
S11354802DE9F04782B004000D0016005FF0000A19
S1135490A94699F80000002805D0484610F10109F2
S11354A000783A28F5D199F8000000280CD00022A1
S11354B000A9484603F04EF9824600980078002877
S11354C002D040F60B201CE02C20FCF79CFE0700C9
S11354D0002F01D1042014E067602068406A8046F0
S11354E0381D18F1240191EC060B80EC060B012009
S11354F0F86199F80000002801D0C7F810A03E62B6
S11355000020BDE8F687000010B50400002120004B
S1135510FFF77AFF6068FCF728FD002010BD00004B
S113552070B504000D00160033002A00002120008D
S1135530FFF7E4FE70BD000070B504000D00160016
S11355403300002229002000FFF7D8FE70BD0000C0
S11355502DE9F04F83B004008A4615005FF000087F
S11355605FF00009606806002068406A0700504642
S1135570C01E52D0801F49D040F6F851401A00F0A6
S11355808280401E00F09B80401E00F0A780401ED9
S113559000F0AC80401E00F03981401E00F03E81D6
S11355A0401E00F0D180401E00F0DC80401E00F060
S11355B0FB80401E00F00781401E00F07E81401EEB
S11355C000F07C81401E4ED0401E54D0401E00F09E
S11355D05C81401E00F06581401E00F0A380401EE7
S11355E000F0A880401E00F08B80401E00F09080E8
S11355F0401E00F02F81401E1ED0401E16D0401EBB
S113560000F01681401E00F01B8158E11020286034
S1135610002068604820A86078E1306A400C10F0EF
S113562001012000FFF7F0FE80466FE10021200019
S1135630FFF7EAFE804669E1002D02D1B5488046B5
S113564010E0AB46DBF80030DBF80820DBF8041090
S11356502000FFF753FEDBF80010814202D05FF018
S1135660FF30804652E1002D02D1AA48804601E075
S1135670306A28604AE1002D02D1A648804601E044
S11356802868306242E1002D02D1A248804615E02C
S113569070682860F8694069002809D02B005246D8
S11356A0311D386AD7F81CC0DCF814C0E0478046C6
S11356B040F60920804501D10020804626E1002DD6
S11356C002D02868002804D1786A70600120F06153
S11356D003E0286870600120F06117E1002D02D119
S11356E08C48804601E0B06828600FE1002D02D1AB
S11356F08848804603E02868B0600120F06105E135
S1135700002D02D18348804601E030692860FDE025
S1135710002D02D17F48804603E0286830610120D3
S1135720F061F3E0002D02D17A48804601E0F06890
S11357302860EBE0002D02D17648804603E028681B
S1135740F0600120F061E1E0002D02D17148804653
S113575007E0307D800702D50120286001E00020A9
S11357602860D3E0002D02D16A4880461BE02868F7
S113577001280AD1706930F002007061706950F03C
S1135780020070610120F0610DE02868002808D152
S1135790706930F002007061706970610120F0611D
S11357A001E05D488046B1E0002D02D159488046B1
S11357B008E0307DC00703D54FF40040286001E0C5
S11357C001202860A2E0002D02D1524880461CE04E
S11357D02868B0F5004F0AD1706940084000706134
S11357E0706950F0010070610120F0610DE02868DB
S11357F0012808D1706940084000706170697061C7
S11358000120F06101E0454880467FE0002D02D18F
S11358104048804601E0B069286077E0002D02D15D
S11358203C48804603E02868B0610120F0616DE0E7
S1135830002D02D13748804601E07069286065E098
S1135840002D02D13348804603E0286870610120AE
S1135850F0615BE0002D02D12E48804614E03068F0
S1135860002806D13800FDF78CF98046B8F1000F06
S11358704CD12868F863686838643068002803D11C
S11358803800FDF740F9804640E0002D02D1214860
S1135890804605E016F12402D2E90001C5E90001C1
S11358A034E0082001900020009016F1240B009AA7
S11358B001995846FCF746F828E027E026E0F86905
S11358C0406900281FD03068002806D13800FDF751
S11358D058F98046B8F1000F18D12B005246311DFB
S11358E0386AD7F81CC0DCF814C0E0478146306839
S11358F0002803D13800FDF706F98046B9F1000FFE
S113590004D0C84602E040F6092080464046BDE87F
S1135910FE8F0000070701000207010004070100D1
S11359202DE9FE4304000D002420FCF7DBFB0600F8
S1135930002E02D1DFF87C042FE05FF024085FF032
S113594000094A4641463000FBF7FCFF2A003100BB
S1135950200003F0D1F80700002F18D12A003100ED
S1135960200003F072FD0700002F10D102960FF201
S1135970DD4001900FF2CD4000900FF255430FF23D
S113598055320FF21D01200004F05AFA0700002FCF
S113599002D03000FCF7E9FA3800BDE8FE830000CD
S11359A02DE9F54F83B00E0003980068446A03980C
S11359B0006885682800451C0078002801D0761C02
S11359C0F8E73500287800284ED1049F002F02D133
S11359D0DFF8E4037BE12068002824D11420FCF7DD
S11359E072FA20602068002802D1DFF8C8036EE153
S11359F00820FCF768FA60606068002805D16068D8
S1135A00FCF7B3FADFF8AC0361E138682168086099
S1135A100020616848602168039803F071F80090E1
S1135A20002803D10DE0DFF8940350E12068FCF76F
S1135A309CFA6068FCF799FA0020206000206060FE
S1135A4010E06168039803F003FD0090002809D07A
S1135A502068FCF78AFA6068FCF787FA0020206067
S1135A6000206060009832E1049F5FF0000B14F1A5
S1135A700800804614F110008146002F01D1CE4861
S1135A8025E12068002801D1CD4820E1786800286C
S1135A9001D1CC481BE100208346BBF1020F0CD29C
S1135AA0310014EB8B00806904F0E8F9002801D17F
S1135AB0C2480CE11BF1010BEFE700208346BBF168
S1135AC0020F07D214EB8B008069002802D01BF16F
S1135AD0010BF4E7BBF1020F01D1BB48F7E01C2036
S1135AE0FCF7F1F901900198002802D1B148009027
S1135AF0ECE058F82B0000283AD12020FCF7E3F919
S1135B0048F82B0058F82B00002802D1A94800902F
S1135B10D9E02C20FCF7D7F949F82B0059F82B00D1
S1135B20002802D1A3480090C6E058F82B00019940
S1135B30086059F82B00019948600198039948605E
S1135B407869401C8000FCF7BEF958F82B10C86037
S1135B5058F82B00C068796910EB8100001D58F8D3
S1135B602B10086158F82B00C068002806D102E009
S1135B705FF0FF30ABE08F48009096E058F82B00C0
S1135B80C06858F82B10486158F82B00C06858F8C2
S1135B902B10886158F82B00C0F800B0788858F8AA
S1135BA02B108880388858F82B10C880B86959F8A9
S1135BB02B10C861B86859F82B108860F86859F838
S1135BC02B10C86059F82B00C0F800B0788859F839
S1135BD02B1088807868401E59F82B10886159F87A
S1135BE02B00806959F82B104861F86959F82B107B
S1135BF00862386A002804D1012059F82B10486241
S1135C0003E0386A59F82B10486258F82B100398AF
S1135C1003F0E7F80090002842D159F82B100398BC
S1135C2003F0B8FD0090002835D1300004F048F9A5
S1135C30401CFCF748F914EB8B01886114EB8B00D2
S1135C408069002805D159F82B10039803F057FEFA
S1135C5021E0002082461AF80600002809D014EB3F
S1135C608B0080691AF806100AF800101AF1010A6C
S1135C70F1E714EB8B00806900210AF80010B87872
S1135C80800706D4002241F20111039800F0DEF8E7
S1135C901DE000201BE058F82B10039803F036F9A0
S1135CA058F82B00C068FCF760F959F82B00FCF792
S1135CB05CF9002049F82B0058F82B00FCF755F943
S1135CC0002048F82B000198FCF74FF9009805B024
S1135CD0BDE8F08F2DE9F04704002068456A666846
S1135CE015F1080715F11008002E2AD1002081466D
S1135CF0B9F1020F08DA57F82900002801D0334817
S1135D0056E019F10109F3E76968200003F03CFC4F
S1135D108246002801D050464AE02968200003F05A
S1135D2053F88246002801D0504641E06868FCF7E9
S1135D301CF9002068602868FCF717F90020286027
S1135D4035E030680068814600227168200003F065
S1135D508CFF7168200003F0D2FD8246002801D038
S1135D60504625E03168200003F0D0F88246002830
S1135D7001D050461CE015EB89008069FCF7F5F86A
S1135D80002015EB890188613068C068FCF7EDF8E4
S1135D903068FCF7EAF87068FCF7E7F83000FCF7C5
S1135DA0E4F8002047F82900002048F829000020E2
S1135DB0BDE8F087010E0100030E0100040E01008E
S1135DC0050E0100060E0100070E0100080E010079
S1135DD0F0B403000C005D682E687069002801D1DE
S1135DE000202CE0B069D6F814C0B0EB0C00801091
S1135DF00700002F06D53069D6F80CC0B0EB0C00B4
S1135E0017EBA0079008B84201D290080700002FB2
S1135E1014D0706900682060241D0020D6F814C0D6
S1135E20CCF800007069001D70617069D6F810C06C
S1135E30604501D3F06870617F1EE8E7601AF0BC2A
S1135E407047000003000020704700002DE9F04770
S1135E5004000D0016006768B0462800093842D0D7
S1135E6041F2F801401A0ED0401E12D0401E16D046
S1135E70401E1AD0401E1ED0401E22D0401E26D0E6
S1135E80401E2AD03AE000227968200003F0B1FDD8
S1135E9050E032000021200003F0ABFD4AE0002274
S1135EA07968200003F0E1FE44E032000021200084
S1135EB003F0DBFE3EE000227968200003F012FECE
S1135EC038E032000021200003F00CFE32E0002212
S1135ED07968200003F069FE2CE0320000212000E4
S1135EE003F063FE26E01520C8F800000020C8F87F
S1135EF004000820C8F8080000201BE03200290034
S1135F00200002F029FC8146B9F1000F03D040F6CD
S1135F10092081450DD132002900200003F090F9B9
S1135F20824640F60920824501D1484602E05046A7
S1135F3000E04846BDE8F0877FB504000D0064200A
S1135F40FCF761F90600002E01D104203DE0E86869
S1135F5000683060E86840687060E8688068B06035
S1135F60E868C068F060E86800693061E868406922
S1135F707061E8688069B061E868C069F0612868A8
S1135F80306268687062A868B0622869F062686903
S1135F903063A869B065E869F065012116F1340041
S1135FA0FCF73EFD03960FF2290002900FF69D20A8
S1135FB001900FF2E56000900FF25D330FF2D522ED
S1135FC00FF22D01200002F045FB04B070BD00006B
S1135FD038B50400656A286D002806D12800FBF74F
S1135FE0C4FF00206062002001E040F60A2032BDB8
S1135FF02DE9F54F8BB00F000B980068446A0B989D
S113600000688668012006903000461C007800284D
S113601001D07F1CF8E73E00206D002806D12069DE
S1136020002803D02000216988470690069800289C
S113603002D15FF0FF302AE1A06A002815D00020C9
S11360408046A06A0C2101FB0800006800280CD0DF
S11360503100A06A0C2202FB0800006803F00EFF66
S1136060002802D018F10108EBE7A06A002806D046
